{
  "_format": "hh-sol-artifact-1",
  "contractName": "MyEpicNFT",
  "sourceName": "contracts/MyEpicNFT.sol",
  "abi": [
    {
      "inputs": [],
      "stateMutability": "nonpayable",
      "type": "constructor"
    },
    {
      "anonymous": false,
      "inputs": [
        {
          "indexed": true,
          "internalType": "address",
          "name": "owner",
          "type": "address"
        },
        {
          "indexed": true,
          "internalType": "address",
          "name": "approved",
          "type": "address"
        },
        {
          "indexed": true,
          "internalType": "uint256",
          "name": "tokenId",
          "type": "uint256"
        }
      ],
      "name": "Approval",
      "type": "event"
    },
    {
      "anonymous": false,
      "inputs": [
        {
          "indexed": true,
          "internalType": "address",
          "name": "owner",
          "type": "address"
        },
        {
          "indexed": true,
          "internalType": "address",
          "name": "operator",
          "type": "address"
        },
        {
          "indexed": false,
          "internalType": "bool",
          "name": "approved",
          "type": "bool"
        }
      ],
      "name": "ApprovalForAll",
      "type": "event"
    },
    {
      "anonymous": false,
      "inputs": [
        {
          "indexed": false,
          "internalType": "address",
          "name": "sender",
          "type": "address"
        },
        {
          "indexed": false,
          "internalType": "uint256",
          "name": "tokenId",
          "type": "uint256"
        }
      ],
      "name": "NewEpicNFTMinted",
      "type": "event"
    },
    {
      "anonymous": false,
      "inputs": [
        {
          "indexed": true,
          "internalType": "address",
          "name": "from",
          "type": "address"
        },
        {
          "indexed": true,
          "internalType": "address",
          "name": "to",
          "type": "address"
        },
        {
          "indexed": true,
          "internalType": "uint256",
          "name": "tokenId",
          "type": "uint256"
        }
      ],
      "name": "Transfer",
      "type": "event"
    },
    {
      "inputs": [
        {
          "internalType": "address",
          "name": "to",
          "type": "address"
        },
        {
          "internalType": "uint256",
          "name": "tokenId",
          "type": "uint256"
        }
      ],
      "name": "approve",
      "outputs": [],
      "stateMutability": "nonpayable",
      "type": "function"
    },
    {
      "inputs": [
        {
          "internalType": "address",
          "name": "owner",
          "type": "address"
        }
      ],
      "name": "balanceOf",
      "outputs": [
        {
          "internalType": "uint256",
          "name": "",
          "type": "uint256"
        }
      ],
      "stateMutability": "view",
      "type": "function"
    },
    {
      "inputs": [
        {
          "internalType": "uint256",
          "name": "tokenId",
          "type": "uint256"
        }
      ],
      "name": "getApproved",
      "outputs": [
        {
          "internalType": "address",
          "name": "",
          "type": "address"
        }
      ],
      "stateMutability": "view",
      "type": "function"
    },
    {
      "inputs": [],
      "name": "getTotalNFTsMintedSoFar",
      "outputs": [
        {
          "internalType": "uint256",
          "name": "",
          "type": "uint256"
        }
      ],
      "stateMutability": "view",
      "type": "function"
    },
    {
      "inputs": [
        {
          "internalType": "address",
          "name": "owner",
          "type": "address"
        },
        {
          "internalType": "address",
          "name": "operator",
          "type": "address"
        }
      ],
      "name": "isApprovedForAll",
      "outputs": [
        {
          "internalType": "bool",
          "name": "",
          "type": "bool"
        }
      ],
      "stateMutability": "view",
      "type": "function"
    },
    {
      "inputs": [],
      "name": "makeAnEpicNFT",
      "outputs": [],
      "stateMutability": "nonpayable",
      "type": "function"
    },
    {
      "inputs": [],
      "name": "maxSupply",
      "outputs": [
        {
          "internalType": "uint256",
          "name": "",
          "type": "uint256"
        }
      ],
      "stateMutability": "view",
      "type": "function"
    },
    {
      "inputs": [],
      "name": "name",
      "outputs": [
        {
          "internalType": "string",
          "name": "",
          "type": "string"
        }
      ],
      "stateMutability": "view",
      "type": "function"
    },
    {
      "inputs": [
        {
          "internalType": "uint256",
          "name": "tokenId",
          "type": "uint256"
        }
      ],
      "name": "ownerOf",
      "outputs": [
        {
          "internalType": "address",
          "name": "",
          "type": "address"
        }
      ],
      "stateMutability": "view",
      "type": "function"
    },
    {
      "inputs": [
        {
          "internalType": "uint256",
          "name": "tokenId",
          "type": "uint256"
        }
      ],
      "name": "pickRandomColor",
      "outputs": [
        {
          "internalType": "string",
          "name": "",
          "type": "string"
        }
      ],
      "stateMutability": "view",
      "type": "function"
    },
    {
      "inputs": [
        {
          "internalType": "uint256",
          "name": "tokenId",
          "type": "uint256"
        }
      ],
      "name": "pickRandomFirstWord",
      "outputs": [
        {
          "internalType": "string",
          "name": "",
          "type": "string"
        }
      ],
      "stateMutability": "view",
      "type": "function"
    },
    {
      "inputs": [
        {
          "internalType": "uint256",
          "name": "tokenId",
          "type": "uint256"
        }
      ],
      "name": "pickRandomSecondWord",
      "outputs": [
        {
          "internalType": "string",
          "name": "",
          "type": "string"
        }
      ],
      "stateMutability": "view",
      "type": "function"
    },
    {
      "inputs": [
        {
          "internalType": "uint256",
          "name": "tokenId",
          "type": "uint256"
        }
      ],
      "name": "pickRandomThirdWord",
      "outputs": [
        {
          "internalType": "string",
          "name": "",
          "type": "string"
        }
      ],
      "stateMutability": "view",
      "type": "function"
    },
    {
      "inputs": [
        {
          "internalType": "address",
          "name": "from",
          "type": "address"
        },
        {
          "internalType": "address",
          "name": "to",
          "type": "address"
        },
        {
          "internalType": "uint256",
          "name": "tokenId",
          "type": "uint256"
        }
      ],
      "name": "safeTransferFrom",
      "outputs": [],
      "stateMutability": "nonpayable",
      "type": "function"
    },
    {
      "inputs": [
        {
          "internalType": "address",
          "name": "from",
          "type": "address"
        },
        {
          "internalType": "address",
          "name": "to",
          "type": "address"
        },
        {
          "internalType": "uint256",
          "name": "tokenId",
          "type": "uint256"
        },
        {
          "internalType": "bytes",
          "name": "_data",
          "type": "bytes"
        }
      ],
      "name": "safeTransferFrom",
      "outputs": [],
      "stateMutability": "nonpayable",
      "type": "function"
    },
    {
      "inputs": [
        {
          "internalType": "address",
          "name": "operator",
          "type": "address"
        },
        {
          "internalType": "bool",
          "name": "approved",
          "type": "bool"
        }
      ],
      "name": "setApprovalForAll",
      "outputs": [],
      "stateMutability": "nonpayable",
      "type": "function"
    },
    {
      "inputs": [
        {
          "internalType": "bytes4",
          "name": "interfaceId",
          "type": "bytes4"
        }
      ],
      "name": "supportsInterface",
      "outputs": [
        {
          "internalType": "bool",
          "name": "",
          "type": "bool"
        }
      ],
      "stateMutability": "view",
      "type": "function"
    },
    {
      "inputs": [],
      "name": "symbol",
      "outputs": [
        {
          "internalType": "string",
          "name": "",
          "type": "string"
        }
      ],
      "stateMutability": "view",
      "type": "function"
    },
    {
      "inputs": [
        {
          "internalType": "uint256",
          "name": "index",
          "type": "uint256"
        }
      ],
      "name": "tokenByIndex",
      "outputs": [
        {
          "internalType": "uint256",
          "name": "",
          "type": "uint256"
        }
      ],
      "stateMutability": "view",
      "type": "function"
    },
    {
      "inputs": [
        {
          "internalType": "address",
          "name": "owner",
          "type": "address"
        },
        {
          "internalType": "uint256",
          "name": "index",
          "type": "uint256"
        }
      ],
      "name": "tokenOfOwnerByIndex",
      "outputs": [
        {
          "internalType": "uint256",
          "name": "",
          "type": "uint256"
        }
      ],
      "stateMutability": "view",
      "type": "function"
    },
    {
      "inputs": [
        {
          "internalType": "uint256",
          "name": "tokenId",
          "type": "uint256"
        }
      ],
      "name": "tokenURI",
      "outputs": [
        {
          "internalType": "string",
          "name": "",
          "type": "string"
        }
      ],
      "stateMutability": "view",
      "type": "function"
    },
    {
      "inputs": [],
      "name": "totalSupply",
      "outputs": [
        {
          "internalType": "uint256",
          "name": "",
          "type": "uint256"
        }
      ],
      "stateMutability": "view",
      "type": "function"
    },
    {
      "inputs": [
        {
          "internalType": "address",
          "name": "from",
          "type": "address"
        },
        {
          "internalType": "address",
          "name": "to",
          "type": "address"
        },
        {
          "internalType": "uint256",
          "name": "tokenId",
          "type": "uint256"
        }
      ],
      "name": "transferFrom",
      "outputs": [],
      "stateMutability": "nonpayable",
      "type": "function"
    }
  ],
  "bytecode": "0x60806040526064600c5560405180610100016040528060d38152602001620055d560d39139600d90805190602001906200003b92919062000e7e565b50604051806080016040528060568152602001620056a860569139600e90805190602001906200006d92919062000e7e565b506040518061020001604052806040518060400160405280600581526020017f4372617a7900000000000000000000000000000000000000000000000000000081525081526020016040518060400160405280600581526020017f467572727900000000000000000000000000000000000000000000000000000081525081526020016040518060400160405280600781526020017f426573706f6b650000000000000000000000000000000000000000000000000081525081526020016040518060400160405280600581526020017f486169727900000000000000000000000000000000000000000000000000000081525081526020016040518060400160405280600581526020017f5368696e7900000000000000000000000000000000000000000000000000000081525081526020016040518060400160405280600b81526020017f526164696f61637469766500000000000000000000000000000000000000000081525081526020016040518060400160405280600481526020017f4b696e640000000000000000000000000000000000000000000000000000000081525081526020016040518060400160405280600481526020017f54616c6c0000000000000000000000000000000000000000000000000000000081525081526020016040518060400160405280600581526020017f53686f727400000000000000000000000000000000000000000000000000000081525081526020016040518060400160405280600381526020017f466174000000000000000000000000000000000000000000000000000000000081525081526020016040518060400160405280600781526020017f4964696f7469630000000000000000000000000000000000000000000000000081525081526020016040518060400160405280600881526020017f436f6c6f7266756c00000000000000000000000000000000000000000000000081525081526020016040518060400160405280600681526020017f537475706964000000000000000000000000000000000000000000000000000081525081526020016040518060400160405280600681526020017f47656e697573000000000000000000000000000000000000000000000000000081525081526020016040518060400160405280600481526020017f526963680000000000000000000000000000000000000000000000000000000081525081526020016040518060400160405280600481526020017f506f6f7200000000000000000000000000000000000000000000000000000000815250815250600f9060106200043a92919062000f0f565b506040518061018001604052806040518060400160405280600881526020017f536c656570696e6700000000000000000000000000000000000000000000000081525081526020016040518060400160405280600781526020017f52756e6e696e670000000000000000000000000000000000000000000000000081525081526020016040518060400160405280600881526020017f4b6e65656c696e6700000000000000000000000000000000000000000000000081525081526020016040518060400160405280600781526020017f50726179696e670000000000000000000000000000000000000000000000000081525081526020016040518060400160405280600781526020017f44616e63696e670000000000000000000000000000000000000000000000000081525081526020016040518060400160405280600781526020017f4a756d70696e670000000000000000000000000000000000000000000000000081525081526020016040518060400160405280600881526020017f5377696d6d696e6700000000000000000000000000000000000000000000000081525081526020016040518060400160405280600b81526020017f5661636174696f6e696e6700000000000000000000000000000000000000000081525081526020016040518060400160405280600781526020017f53757266696e670000000000000000000000000000000000000000000000000081525081526020016040518060400160405280600781526020017f466c616d696e670000000000000000000000000000000000000000000000000081525081526020016040518060400160405280600881526020017f53706f6f6e696e6700000000000000000000000000000000000000000000000081525081526020016040518060400160405280600681526020017f436f64696e670000000000000000000000000000000000000000000000000000815250815250601090600c6200071b92919062000f76565b506040518061024001604052806040518060400160405280600681526020017f57616c727573000000000000000000000000000000000000000000000000000081525081526020016040518060400160405280600881526020017f416e74656174657200000000000000000000000000000000000000000000000081525081526020016040518060400160405280600781526020017f50656e6775696e0000000000000000000000000000000000000000000000000081525081526020016040518060400160405280600381526020017f417065000000000000000000000000000000000000000000000000000000000081525081526020016040518060400160405280600681526020017f4d6f6e6b6579000000000000000000000000000000000000000000000000000081525081526020016040518060400160405280600381526020017f446f67000000000000000000000000000000000000000000000000000000000081525081526020016040518060400160405280600381526020017f436174000000000000000000000000000000000000000000000000000000000081525081526020016040518060400160405280600781526020017f48616d737465720000000000000000000000000000000000000000000000000081525081526020016040518060400160405280600681526020017f47657262696c000000000000000000000000000000000000000000000000000081525081526020016040518060400160405280600681526020017f4d75736b4f78000000000000000000000000000000000000000000000000000081525081526020016040518060400160405280600481526020017f4c696f6e0000000000000000000000000000000000000000000000000000000081525081526020016040518060400160405280600781526020017f45636869646e610000000000000000000000000000000000000000000000000081525081526020016040518060400160405280600681526020017f417965417965000000000000000000000000000000000000000000000000000081525081526020016040518060400160405280600c81526020017f4e616b65644d6f6c65526174000000000000000000000000000000000000000081525081526020016040518060400160405280600481526020017f4f7263610000000000000000000000000000000000000000000000000000000081525081526020016040518060400160405280600381526020017f416e74000000000000000000000000000000000000000000000000000000000081525081526020016040518060400160405280600681526020017f426f6e6f626f000000000000000000000000000000000000000000000000000081525081526020016040518060400160405280600781526020017f54616d6172696e00000000000000000000000000000000000000000000000000815250815250601190601262000b5e92919062000fdd565b506040518061014001604052806040518060400160405280600381526020017f726564000000000000000000000000000000000000000000000000000000000081525081526020016040518060400160405280600781526020017f233462306532610000000000000000000000000000000000000000000000000081525081526020016040518060400160405280600781526020017f233038433241380000000000000000000000000000000000000000000000000081525081526020016040518060400160405280600781526020017f233063363930370000000000000000000000000000000000000000000000000081525081526020016040518060400160405280600781526020017f236633366131380000000000000000000000000000000000000000000000000081525081526020016040518060400160405280600781526020017f236665303139610000000000000000000000000000000000000000000000000081525081526020016040518060400160405280600581526020017f626c61636b00000000000000000000000000000000000000000000000000000081525081526020016040518060400160405280600781526020017f233935383531370000000000000000000000000000000000000000000000000081525081526020016040518060400160405280600481526020017f626c75650000000000000000000000000000000000000000000000000000000081525081526020016040518060400160405280600581526020017f677265656e000000000000000000000000000000000000000000000000000000815250815250601290600a62000dc992919062001044565b5034801562000dd757600080fd5b506040518060400160405280601281526020017f4372617a7920416e696d616c73204361666500000000000000000000000000008152506040518060400160405280600781526020017f4b69705465737400000000000000000000000000000000000000000000000000815250816000908051906020019062000e5c92919062000e7e565b50806001908051906020019062000e7592919062000e7e565b5050506200119d565b82805462000e8c9062001138565b90600052602060002090601f01602090048101928262000eb0576000855562000efc565b82601f1062000ecb57805160ff191683800117855562000efc565b8280016001018555821562000efc579182015b8281111562000efb57825182559160200191906001019062000ede565b5b50905062000f0b9190620010ab565b5090565b82805482825590600052602060002090810192821562000f63579160200282015b8281111562000f6257825182908051906020019062000f5192919062000e7e565b509160200191906001019062000f30565b5b50905062000f729190620010ca565b5090565b82805482825590600052602060002090810192821562000fca579160200282015b8281111562000fc957825182908051906020019062000fb892919062000e7e565b509160200191906001019062000f97565b5b50905062000fd99190620010ca565b5090565b82805482825590600052602060002090810192821562001031579160200282015b82811115620010305782518290805190602001906200101f92919062000e7e565b509160200191906001019062000ffe565b5b509050620010409190620010ca565b5090565b82805482825590600052602060002090810192821562001098579160200282015b82811115620010975782518290805190602001906200108692919062000e7e565b509160200191906001019062001065565b5b509050620010a79190620010ca565b5090565b5b80821115620010c6576000816000905550600101620010ac565b5090565b5b80821115620010ee5760008181620010e49190620010f2565b50600101620010cb565b5090565b508054620011009062001138565b6000825580601f1062001114575062001135565b601f016020900490600052602060002090810190620011349190620010ab565b5b50565b600060028204905060018216806200115157607f821691505b602082108114156200116857620011676200116e565b5b50919050565b7f4e487b7100000000000000000000000000000000000000000000000000000000600052602260045260246000fd5b61442880620011ad6000396000f3fe608060405234801561001057600080fd5b506004361061014d5760003560e01c8063514dc8c6116100c3578063b88d4fde1161007c578063b88d4fde146103ea578063c575757a14610406578063c87b56dd14610436578063d5abeb0114610466578063de9d132f14610484578063e985e9c51461048e5761014d565b8063514dc8c6146102f05780636352211e1461032057806370a082311461035057806395d89b4114610380578063a22cb4651461039e578063b187301f146103ba5761014d565b806318160ddd1161011557806318160ddd1461020a57806323b872dd146102285780632de38d68146102445780632f745c591461027457806342842e0e146102a45780634f6ccce7146102c05761014d565b806301ffc9a714610152578063060475901461018257806306fdde03146101a0578063081812fc146101be578063095ea7b3146101ee575b600080fd5b61016c60048036038101906101679190612e32565b6104be565b6040516101799190613c3e565b60405180910390f35b61018a6104d0565b6040516101979190613f19565b60405180910390f35b6101a86104e1565b6040516101b59190613c59565b60405180910390f35b6101d860048036038101906101d39190612e84565b610573565b6040516101e59190613bae565b60405180910390f35b61020860048036038101906102039190612df6565b6105f8565b005b610212610710565b60405161021f9190613f19565b60405180910390f35b610242600480360381019061023d9190612cf0565b61071d565b005b61025e60048036038101906102599190612e84565b61077d565b60405161026b9190613c59565b60405180910390f35b61028e60048036038101906102899190612df6565b61089b565b60405161029b9190613f19565b60405180910390f35b6102be60048036038101906102b99190612cf0565b610940565b005b6102da60048036038101906102d59190612e84565b610960565b6040516102e79190613f19565b60405180910390f35b61030a60048036038101906103059190612e84565b6109f7565b6040516103179190613c59565b60405180910390f35b61033a60048036038101906103359190612e84565b610b15565b6040516103479190613bae565b60405180910390f35b61036a60048036038101906103659190612c8b565b610bc7565b6040516103779190613f19565b60405180910390f35b610388610c7f565b6040516103959190613c59565b60405180910390f35b6103b860048036038101906103b39190612dba565b610d11565b005b6103d460048036038101906103cf9190612e84565b610d27565b6040516103e19190613c59565b60405180910390f35b61040460048036038101906103ff9190612d3f565b610e45565b005b610420600480360381019061041b9190612e84565b610ea7565b60405161042d9190613c59565b60405180910390f35b610450600480360381019061044b9190612e84565b610fc5565b60405161045d9190613c59565b60405180910390f35b61046e610fd7565b60405161047b9190613f19565b60405180910390f35b61048c610fdd565b005b6104a860048036038101906104a39190612cb4565b611254565b6040516104b59190613c3e565b60405180910390f35b60006104c9826112e8565b9050919050565b60006104dc600b611362565b905090565b6060600080546104f0906141b8565b80601f016020809104026020016040519081016040528092919081815260200182805461051c906141b8565b80156105695780601f1061053e57610100808354040283529160200191610569565b820191906000526020600020905b81548152906001019060200180831161054c57829003601f168201915b5050505050905090565b600061057e82611370565b6105bd576040517f08c379a00000000000000000000000000000000000000000000000000000000081526004016105b490613e59565b60405180910390fd5b6004600083815260200190815260200160002060009054906101000a900473ffffffffffffffffffffffffffffffffffffffff169050919050565b600061060382610b15565b90508073ffffffffffffffffffffffffffffffffffffffff168373ffffffffffffffffffffffffffffffffffffffff161415610674576040517f08c379a000000000000000000000000000000000000000000000000000000000815260040161066b90613eb9565b60405180910390fd5b8073ffffffffffffffffffffffffffffffffffffffff166106936113dc565b73ffffffffffffffffffffffffffffffffffffffff1614806106c257506106c1816106bc6113dc565b611254565b5b610701576040517f08c379a00000000000000000000000000000000000000000000000000000000081526004016106f890613d79565b60405180910390fd5b61070b83836113e4565b505050565b6000600980549050905090565b61072e6107286113dc565b8261149d565b61076d576040517f08c379a000000000000000000000000000000000000000000000000000000000815260040161076490613ed9565b60405180910390fd5b61077883838361157b565b505050565b606060006107b161078d846117d7565b60405160200161079d9190613b48565b604051602081830303815290604052611984565b9050600f80549050816107c49190614233565b9050600f8181548110610800577f4e487b7100000000000000000000000000000000000000000000000000000000600052603260045260246000fd5b906000526020600020018054610815906141b8565b80601f0160208091040260200160405190810160405280929190818152602001828054610841906141b8565b801561088e5780601f106108635761010080835404028352916020019161088e565b820191906000526020600020905b81548152906001019060200180831161087157829003601f168201915b5050505050915050919050565b60006108a683610bc7565b82106108e7576040517f08c379a00000000000000000000000000000000000000000000000000000000081526004016108de90613cb9565b60405180910390fd5b600760008473ffffffffffffffffffffffffffffffffffffffff1673ffffffffffffffffffffffffffffffffffffffff168152602001908152602001600020600083815260200190815260200160002054905092915050565b61095b83838360405180602001604052806000815250610e45565b505050565b600061096a610710565b82106109ab576040517f08c379a00000000000000000000000000000000000000000000000000000000081526004016109a290613ef9565b60405180910390fd5b600982815481106109e5577f4e487b7100000000000000000000000000000000000000000000000000000000600052603260045260246000fd5b90600052602060002001549050919050565b60606000610a2b610a07846117d7565b604051602001610a179190613b8c565b604051602081830303815290604052611984565b905060128054905081610a3e9190614233565b905060128181548110610a7a577f4e487b7100000000000000000000000000000000000000000000000000000000600052603260045260246000fd5b906000526020600020018054610a8f906141b8565b80601f0160208091040260200160405190810160405280929190818152602001828054610abb906141b8565b8015610b085780601f10610add57610100808354040283529160200191610b08565b820191906000526020600020905b815481529060010190602001808311610aeb57829003601f168201915b5050505050915050919050565b6000806002600084815260200190815260200160002060009054906101000a900473ffffffffffffffffffffffffffffffffffffffff169050600073ffffffffffffffffffffffffffffffffffffffff168173ffffffffffffffffffffffffffffffffffffffff161415610bbe576040517f08c379a0000000000000000000000000000000000000000000000000000000008152600401610bb590613db9565b60405180910390fd5b80915050919050565b60008073ffffffffffffffffffffffffffffffffffffffff168273ffffffffffffffffffffffffffffffffffffffff161415610c38576040517f08c379a0000000000000000000000000000000000000000000000000000000008152600401610c2f90613d99565b60405180910390fd5b600360008373ffffffffffffffffffffffffffffffffffffffff1673ffffffffffffffffffffffffffffffffffffffff168152602001908152602001600020549050919050565b606060018054610c8e906141b8565b80601f0160208091040260200160405190810160405280929190818152602001828054610cba906141b8565b8015610d075780601f10610cdc57610100808354040283529160200191610d07565b820191906000526020600020905b815481529060010190602001808311610cea57829003601f168201915b5050505050905090565b610d23610d1c6113dc565b83836119b7565b5050565b60606000610d5b610d37846117d7565b604051602001610d479190613ae1565b604051602081830303815290604052611984565b905060108054905081610d6e9190614233565b905060108181548110610daa577f4e487b7100000000000000000000000000000000000000000000000000000000600052603260045260246000fd5b906000526020600020018054610dbf906141b8565b80601f0160208091040260200160405190810160405280929190818152602001828054610deb906141b8565b8015610e385780601f10610e0d57610100808354040283529160200191610e38565b820191906000526020600020905b815481529060010190602001808311610e1b57829003601f168201915b5050505050915050919050565b610e56610e506113dc565b8361149d565b610e95576040517f08c379a0000000000000000000000000000000000000000000000000000000008152600401610e8c90613ed9565b60405180910390fd5b610ea184848484611b24565b50505050565b60606000610edb610eb7846117d7565b604051602001610ec79190613abf565b604051602081830303815290604052611984565b905060118054905081610eee9190614233565b905060118181548110610f2a577f4e487b7100000000000000000000000000000000000000000000000000000000600052603260045260246000fd5b906000526020600020018054610f3f906141b8565b80601f0160208091040260200160405190810160405280929190818152602001828054610f6b906141b8565b8015610fb85780601f10610f8d57610100808354040283529160200191610fb8565b820191906000526020600020905b815481529060010190602001808311610f9b57829003601f168201915b5050505050915050919050565b6060610fd082611b80565b9050919050565b600c5481565b6000610fe9600b611362565b90506000610ff5610710565b9050600c546001826110079190613fed565b1115611048576040517f08c379a000000000000000000000000000000000000000000000000000000000815260040161103f90613df9565b60405180910390fd5b60006110538361077d565b9050600061106084610d27565b9050600061106d85610ea7565b9050600083838360405160200161108693929190613a23565b604051602081830303815290604052905060006110a2876109f7565b90506000600d82600e856040516020016110bf9493929190613a54565b60405160208183030381529060405290506000611104846110df84611cd2565b6040516020016110f0929190613b03565b604051602081830303815290604052611cd2565b90506000816040516020016111199190613b6a565b60405160208183030381529060405290506111686040518060400160405280601581526020017f0a2d2d2d2d2d2d2d2d2d2d2d2d2d2d2d2d2d2d2d2d0000000000000000000000815250611e90565b6111908160405160200161117c9190613a9d565b604051602081830303815290604052611e90565b6111ce6040518060400160405280601581526020017f2d2d2d2d2d2d2d2d2d2d2d2d2d2d2d2d2d2d2d2d0a0000000000000000000000815250611e90565b6111d8338b611f29565b6111e28a82611f47565b6111ec600b611fbb565b61120f60405180606001604052806025815260200161438e602591398b33611fd1565b7febb98688741ffa4c7589bf325de30cf7becb63de567842e1ccdb6cb949fdc82c338b604051611240929190613c15565b60405180910390a150505050505050505050565b6000600560008473ffffffffffffffffffffffffffffffffffffffff1673ffffffffffffffffffffffffffffffffffffffff16815260200190815260200160002060008373ffffffffffffffffffffffffffffffffffffffff1673ffffffffffffffffffffffffffffffffffffffff16815260200190815260200160002060009054906101000a900460ff16905092915050565b60007f780e9d63000000000000000000000000000000000000000000000000000000007bffffffffffffffffffffffffffffffffffffffffffffffffffffffff1916827bffffffffffffffffffffffffffffffffffffffffffffffffffffffff1916148061135b575061135a82612070565b5b9050919050565b600081600001549050919050565b60008073ffffffffffffffffffffffffffffffffffffffff166002600084815260200190815260200160002060009054906101000a900473ffffffffffffffffffffffffffffffffffffffff1673ffffffffffffffffffffffffffffffffffffffff1614159050919050565b600033905090565b816004600083815260200190815260200160002060006101000a81548173ffffffffffffffffffffffffffffffffffffffff021916908373ffffffffffffffffffffffffffffffffffffffff160217905550808273ffffffffffffffffffffffffffffffffffffffff1661145783610b15565b73ffffffffffffffffffffffffffffffffffffffff167f8c5be1e5ebec7d5bd14f71427d1e84f3dd0314c0f7b2291e5b200ac8c7c3b92560405160405180910390a45050565b60006114a882611370565b6114e7576040517f08c379a00000000000000000000000000000000000000000000000000000000081526004016114de90613d59565b60405180910390fd5b60006114f283610b15565b90508073ffffffffffffffffffffffffffffffffffffffff168473ffffffffffffffffffffffffffffffffffffffff16148061156157508373ffffffffffffffffffffffffffffffffffffffff1661154984610573565b73ffffffffffffffffffffffffffffffffffffffff16145b8061157257506115718185611254565b5b91505092915050565b8273ffffffffffffffffffffffffffffffffffffffff1661159b82610b15565b73ffffffffffffffffffffffffffffffffffffffff16146115f1576040517f08c379a00000000000000000000000000000000000000000000000000000000081526004016115e890613e79565b60405180910390fd5b600073ffffffffffffffffffffffffffffffffffffffff168273ffffffffffffffffffffffffffffffffffffffff161415611661576040517f08c379a000000000000000000000000000000000000000000000000000000000815260040161165890613d19565b60405180910390fd5b61166c838383612152565b6116776000826113e4565b6001600360008573ffffffffffffffffffffffffffffffffffffffff1673ffffffffffffffffffffffffffffffffffffffff16815260200190815260200160002060008282546116c791906140ce565b925050819055506001600360008473ffffffffffffffffffffffffffffffffffffffff1673ffffffffffffffffffffffffffffffffffffffff168152602001908152602001600020600082825461171e9190613fed565b92505081905550816002600083815260200190815260200160002060006101000a81548173ffffffffffffffffffffffffffffffffffffffff021916908373ffffffffffffffffffffffffffffffffffffffff160217905550808273ffffffffffffffffffffffffffffffffffffffff168473ffffffffffffffffffffffffffffffffffffffff167fddf252ad1be2c89b69c2b068fc378daa952ba7f163c4a11628f55a4df523b3ef60405160405180910390a4505050565b6060600082141561181f576040518060400160405280600181526020017f3000000000000000000000000000000000000000000000000000000000000000815250905061197f565b600082905060005b6000821461185157808061183a906141ea565b915050600a8261184a9190614043565b9150611827565b60008167ffffffffffffffff811115611893577f4e487b7100000000000000000000000000000000000000000000000000000000600052604160045260246000fd5b6040519080825280601f01601f1916602001820160405280156118c55781602001600182028036833780820191505090505b5090505b60008514611978576001826118de91906140ce565b9150600a856118ed9190614233565b60306118f99190613fed565b60f81b818381518110611935577f4e487b7100000000000000000000000000000000000000000000000000000000600052603260045260246000fd5b60200101907effffffffffffffffffffffffffffffffffffffffffffffffffffffffffffff1916908160001a905350600a856119719190614043565b94506118c9565b8093505050505b919050565b60008160405160200161199791906139e8565b6040516020818303038152906040528051906020012060001c9050919050565b8173ffffffffffffffffffffffffffffffffffffffff168373ffffffffffffffffffffffffffffffffffffffff161415611a26576040517f08c379a0000000000000000000000000000000000000000000000000000000008152600401611a1d90613d39565b60405180910390fd5b80600560008573ffffffffffffffffffffffffffffffffffffffff1673ffffffffffffffffffffffffffffffffffffffff16815260200190815260200160002060008473ffffffffffffffffffffffffffffffffffffffff1673ffffffffffffffffffffffffffffffffffffffff16815260200190815260200160002060006101000a81548160ff0219169083151502179055508173ffffffffffffffffffffffffffffffffffffffff168373ffffffffffffffffffffffffffffffffffffffff167f17307eab39ab6107e8899845ad3d59bd9653f200f220920489ca2b5937696c3183604051611b179190613c3e565b60405180910390a3505050565b611b2f84848461157b565b611b3b84848484612162565b611b7a576040517f08c379a0000000000000000000000000000000000000000000000000000000008152600401611b7190613cd9565b60405180910390fd5b50505050565b6060611b8b82611370565b611bca576040517f08c379a0000000000000000000000000000000000000000000000000000000008152600401611bc190613e39565b60405180910390fd5b6000600660008481526020019081526020016000208054611bea906141b8565b80601f0160208091040260200160405190810160405280929190818152602001828054611c16906141b8565b8015611c635780601f10611c3857610100808354040283529160200191611c63565b820191906000526020600020905b815481529060010190602001808311611c4657829003601f168201915b505050505090506000611c746122f9565b9050600081511415611c8a578192505050611ccd565b600082511115611cbf578082604051602001611ca79291906139ff565b60405160208183030381529060405292505050611ccd565b611cc884612310565b925050505b919050565b60606000825190506000811415611cfb5760405180602001604052806000815250915050611e8b565b60006003600283611d0c9190613fed565b611d169190614043565b6004611d229190614074565b90506000602082611d339190613fed565b67ffffffffffffffff811115611d72577f4e487b7100000000000000000000000000000000000000000000000000000000600052604160045260246000fd5b6040519080825280601f01601f191660200182016040528015611da45781602001600182028036833780820191505090505b50905060006040518060600160405280604081526020016143b3604091399050600181016020830160005b86811015611e485760038101905062ffffff818a015116603f8160121c168401518060081b905060ff603f83600c1c1686015116810190508060081b905060ff603f8360061c1686015116810190508060081b905060ff603f831686015116810190508060e01b90508084526004840193505050611dcf565b506003860660018114611e625760028114611e7257611e7d565b613d3d60f01b6002830352611e7d565b603d60f81b60018303525b508484525050819450505050505b919050565b611f2681604051602401611ea49190613c59565b6040516020818303038152906040527f41304fac000000000000000000000000000000000000000000000000000000007bffffffffffffffffffffffffffffffffffffffffffffffffffffffff19166020820180517bffffffffffffffffffffffffffffffffffffffffffffffffffffffff83818316178352505050506123b7565b50565b611f438282604051806020016040528060008152506123e0565b5050565b611f5082611370565b611f8f576040517f08c379a0000000000000000000000000000000000000000000000000000000008152600401611f8690613dd9565b60405180910390fd5b80600660008481526020019081526020016000209080519060200190611fb6929190612b17565b505050565b6001816000016000828254019250508190555050565b61206b838383604051602401611fe993929190613c7b565b6040516020818303038152906040527fe3849f79000000000000000000000000000000000000000000000000000000007bffffffffffffffffffffffffffffffffffffffffffffffffffffffff19166020820180517bffffffffffffffffffffffffffffffffffffffffffffffffffffffff83818316178352505050506123b7565b505050565b60007f80ac58cd000000000000000000000000000000000000000000000000000000007bffffffffffffffffffffffffffffffffffffffffffffffffffffffff1916827bffffffffffffffffffffffffffffffffffffffffffffffffffffffff1916148061213b57507f5b5e139f000000000000000000000000000000000000000000000000000000007bffffffffffffffffffffffffffffffffffffffffffffffffffffffff1916827bffffffffffffffffffffffffffffffffffffffffffffffffffffffff1916145b8061214b575061214a8261243b565b5b9050919050565b61215d8383836124a5565b505050565b60006121838473ffffffffffffffffffffffffffffffffffffffff166125b9565b156122ec578373ffffffffffffffffffffffffffffffffffffffff1663150b7a026121ac6113dc565b8786866040518563ffffffff1660e01b81526004016121ce9493929190613bc9565b602060405180830381600087803b1580156121e857600080fd5b505af192505050801561221957506040513d601f19601f820116820180604052508101906122169190612e5b565b60015b61229c573d8060008114612249576040519150601f19603f3d011682016040523d82523d6000602084013e61224e565b606091505b50600081511415612294576040517f08c379a000000000000000000000000000000000000000000000000000000000815260040161228b90613cd9565b60405180910390fd5b805181602001fd5b63150b7a0260e01b7bffffffffffffffffffffffffffffffffffffffffffffffffffffffff1916817bffffffffffffffffffffffffffffffffffffffffffffffffffffffff1916149150506122f1565b600190505b949350505050565b606060405180602001604052806000815250905090565b606061231b82611370565b61235a576040517f08c379a000000000000000000000000000000000000000000000000000000000815260040161235190613e99565b60405180910390fd5b60006123646122f9565b9050600081511161238457604051806020016040528060008152506123af565b8061238e846117d7565b60405160200161239f9291906139ff565b6040516020818303038152906040525b915050919050565b60008151905060006a636f6e736f6c652e6c6f679050602083016000808483855afa5050505050565b6123ea83836125cc565b6123f76000848484612162565b612436576040517f08c379a000000000000000000000000000000000000000000000000000000000815260040161242d90613cd9565b60405180910390fd5b505050565b60007f01ffc9a7000000000000000000000000000000000000000000000000000000007bffffffffffffffffffffffffffffffffffffffffffffffffffffffff1916827bffffffffffffffffffffffffffffffffffffffffffffffffffffffff1916149050919050565b6124b083838361279a565b600073ffffffffffffffffffffffffffffffffffffffff168373ffffffffffffffffffffffffffffffffffffffff1614156124f3576124ee8161279f565b612532565b8173ffffffffffffffffffffffffffffffffffffffff168373ffffffffffffffffffffffffffffffffffffffff16146125315761253083826127e8565b5b5b600073ffffffffffffffffffffffffffffffffffffffff168273ffffffffffffffffffffffffffffffffffffffff1614156125755761257081612955565b6125b4565b8273ffffffffffffffffffffffffffffffffffffffff168273ffffffffffffffffffffffffffffffffffffffff16146125b3576125b28282612a98565b5b5b505050565b600080823b905060008111915050919050565b600073ffffffffffffffffffffffffffffffffffffffff168273ffffffffffffffffffffffffffffffffffffffff16141561263c576040517f08c379a000000000000000000000000000000000000000000000000000000000815260040161263390613e19565b60405180910390fd5b61264581611370565b15612685576040517f08c379a000000000000000000000000000000000000000000000000000000000815260040161267c90613cf9565b60405180910390fd5b61269160008383612152565b6001600360008473ffffffffffffffffffffffffffffffffffffffff1673ffffffffffffffffffffffffffffffffffffffff16815260200190815260200160002060008282546126e19190613fed565b92505081905550816002600083815260200190815260200160002060006101000a81548173ffffffffffffffffffffffffffffffffffffffff021916908373ffffffffffffffffffffffffffffffffffffffff160217905550808273ffffffffffffffffffffffffffffffffffffffff16600073ffffffffffffffffffffffffffffffffffffffff167fddf252ad1be2c89b69c2b068fc378daa952ba7f163c4a11628f55a4df523b3ef60405160405180910390a45050565b505050565b600980549050600a600083815260200190815260200160002081905550600981908060018154018082558091505060019003906000526020600020016000909190919091505550565b600060016127f584610bc7565b6127ff91906140ce565b90506000600860008481526020019081526020016000205490508181146128e4576000600760008673ffffffffffffffffffffffffffffffffffffffff1673ffffffffffffffffffffffffffffffffffffffff168152602001908152602001600020600084815260200190815260200160002054905080600760008773ffffffffffffffffffffffffffffffffffffffff1673ffffffffffffffffffffffffffffffffffffffff168152602001908152602001600020600084815260200190815260200160002081905550816008600083815260200190815260200160002081905550505b6008600084815260200190815260200160002060009055600760008573ffffffffffffffffffffffffffffffffffffffff1673ffffffffffffffffffffffffffffffffffffffff16815260200190815260200160002060008381526020019081526020016000206000905550505050565b6000600160098054905061296991906140ce565b90506000600a60008481526020019081526020016000205490506000600983815481106129bf577f4e487b7100000000000000000000000000000000000000000000000000000000600052603260045260246000fd5b906000526020600020015490508060098381548110612a07577f4e487b7100000000000000000000000000000000000000000000000000000000600052603260045260246000fd5b906000526020600020018190555081600a600083815260200190815260200160002081905550600a6000858152602001908152602001600020600090556009805480612a7c577f4e487b7100000000000000000000000000000000000000000000000000000000600052603160045260246000fd5b6001900381819060005260206000200160009055905550505050565b6000612aa383610bc7565b905081600760008573ffffffffffffffffffffffffffffffffffffffff1673ffffffffffffffffffffffffffffffffffffffff168152602001908152602001600020600083815260200190815260200160002081905550806008600084815260200190815260200160002081905550505050565b828054612b23906141b8565b90600052602060002090601f016020900481019282612b455760008555612b8c565b82601f10612b5e57805160ff1916838001178555612b8c565b82800160010185558215612b8c579182015b82811115612b8b578251825591602001919060010190612b70565b5b509050612b999190612b9d565b5090565b5b80821115612bb6576000816000905550600101612b9e565b5090565b6000612bcd612bc884613f65565b613f34565b905082815260208101848484011115612be557600080fd5b612bf0848285614176565b509392505050565b600081359050612c0781614331565b92915050565b600081359050612c1c81614348565b92915050565b600081359050612c318161435f565b92915050565b600081519050612c468161435f565b92915050565b600082601f830112612c5d57600080fd5b8135612c6d848260208601612bba565b91505092915050565b600081359050612c8581614376565b92915050565b600060208284031215612c9d57600080fd5b6000612cab84828501612bf8565b91505092915050565b60008060408385031215612cc757600080fd5b6000612cd585828601612bf8565b9250506020612ce685828601612bf8565b9150509250929050565b600080600060608486031215612d0557600080fd5b6000612d1386828701612bf8565b9350506020612d2486828701612bf8565b9250506040612d3586828701612c76565b9150509250925092565b60008060008060808587031215612d5557600080fd5b6000612d6387828801612bf8565b9450506020612d7487828801612bf8565b9350506040612d8587828801612c76565b925050606085013567ffffffffffffffff811115612da257600080fd5b612dae87828801612c4c565b91505092959194509250565b60008060408385031215612dcd57600080fd5b6000612ddb85828601612bf8565b9250506020612dec85828601612c0d565b9150509250929050565b60008060408385031215612e0957600080fd5b6000612e1785828601612bf8565b9250506020612e2885828601612c76565b9150509250929050565b600060208284031215612e4457600080fd5b6000612e5284828501612c22565b91505092915050565b600060208284031215612e6d57600080fd5b6000612e7b84828501612c37565b91505092915050565b600060208284031215612e9657600080fd5b6000612ea484828501612c76565b91505092915050565b612eb681614102565b82525050565b612ec581614114565b82525050565b6000612ed682613faa565b612ee08185613fc0565b9350612ef0818560208601614185565b612ef981614320565b840191505092915050565b6000612f0f82613fb5565b612f198185613fd1565b9350612f29818560208601614185565b612f3281614320565b840191505092915050565b6000612f4882613fb5565b612f528185613fe2565b9350612f62818560208601614185565b80840191505092915050565b60008154612f7b816141b8565b612f858186613fe2565b94506001821660008114612fa05760018114612fb157612fe4565b60ff19831686528186019350612fe4565b612fba85613f95565b60005b83811015612fdc57815481890152600182019150602081019050612fbd565b838801955050505b50505092915050565b6000612ffa602583613fe2565b91507f68747470733a2f2f6e6674707265766965772e30786465762e636f6465732f3f60008301527f636f64653d0000000000000000000000000000000000000000000000000000006020830152602582019050919050565b6000613060602b83613fd1565b91507f455243373231456e756d657261626c653a206f776e657220696e646578206f7560008301527f74206f6620626f756e64730000000000000000000000000000000000000000006020830152604082019050919050565b60006130c6603283613fd1565b91507f4552433732313a207472616e7366657220746f206e6f6e20455243373231526560008301527f63656976657220696d706c656d656e74657200000000000000000000000000006020830152604082019050919050565b600061312c601c83613fd1565b91507f4552433732313a20746f6b656e20616c7265616479206d696e746564000000006000830152602082019050919050565b600061316c600a83613fe2565b91507f54484952445f574f5244000000000000000000000000000000000000000000006000830152600a82019050919050565b60006131ac605f83613fe2565b91507f222c226465736372697074696f6e223a20224120686967686c79206163636c6160008301527f696d656420636f6c6c656374696f6e206f66206b6970732e222c2022696d616760208301527f65223a2022646174613a696d6167652f7376672b786d6c3b6261736536342c006040830152605f82019050919050565b6000613238602483613fd1565b91507f4552433732313a207472616e7366657220746f20746865207a65726f2061646460008301527f72657373000000000000000000000000000000000000000000000000000000006020830152604082019050919050565b600061329e601983613fd1565b91507f4552433732313a20617070726f766520746f2063616c6c6572000000000000006000830152602082019050919050565b60006132de600b83613fe2565b91507f5345434f4e445f574f52440000000000000000000000000000000000000000006000830152600b82019050919050565b600061331e602c83613fd1565b91507f4552433732313a206f70657261746f7220717565727920666f72206e6f6e657860008301527f697374656e7420746f6b656e00000000000000000000000000000000000000006020830152604082019050919050565b6000613384600d83613fe2565b91507f3c2f746578743e3c2f7376673e000000000000000000000000000000000000006000830152600d82019050919050565b60006133c4603883613fd1565b91507f4552433732313a20617070726f76652063616c6c6572206973206e6f74206f7760008301527f6e6572206e6f7220617070726f76656420666f7220616c6c00000000000000006020830152604082019050919050565b600061342a602a83613fd1565b91507f4552433732313a2062616c616e636520717565727920666f7220746865207a6560008301527f726f2061646472657373000000000000000000000000000000000000000000006020830152604082019050919050565b6000613490602983613fd1565b91507f4552433732313a206f776e657220717565727920666f72206e6f6e657869737460008301527f656e7420746f6b656e00000000000000000000000000000000000000000000006020830152604082019050919050565b60006134f6602e83613fd1565b91507f45524337323155524953746f726167653a2055524920736574206f66206e6f6e60008301527f6578697374656e7420746f6b656e0000000000000000000000000000000000006020830152604082019050919050565b600061355c601683613fd1565b91507f6d6178204e4654206c696d6974206578636565646564000000000000000000006000830152602082019050919050565b600061359c600283613fe2565b91507f227d0000000000000000000000000000000000000000000000000000000000006000830152600282019050919050565b60006135dc602083613fd1565b91507f4552433732313a206d696e7420746f20746865207a65726f20616464726573736000830152602082019050919050565b600061361c603183613fd1565b91507f45524337323155524953746f726167653a2055524920717565727920666f722060008301527f6e6f6e6578697374656e7420746f6b656e0000000000000000000000000000006020830152604082019050919050565b6000613682602c83613fd1565b91507f4552433732313a20617070726f76656420717565727920666f72206e6f6e657860008301527f697374656e7420746f6b656e00000000000000000000000000000000000000006020830152604082019050919050565b60006136e8602983613fd1565b91507f4552433732313a207472616e73666572206f6620746f6b656e2074686174206960008301527f73206e6f74206f776e00000000000000000000000000000000000000000000006020830152604082019050919050565b600061374e602f83613fd1565b91507f4552433732314d657461646174613a2055524920717565727920666f72206e6f60008301527f6e6578697374656e7420746f6b656e00000000000000000000000000000000006020830152604082019050919050565b60006137b4600a83613fe2565b91507f7b226e616d65223a2022000000000000000000000000000000000000000000006000830152600a82019050919050565b60006137f4602183613fd1565b91507f4552433732313a20617070726f76616c20746f2063757272656e74206f776e6560008301527f72000000000000000000000000000000000000000000000000000000000000006020830152604082019050919050565b600061385a600a83613fe2565b91507f46495253545f574f5244000000000000000000000000000000000000000000006000830152600a82019050919050565b600061389a601d83613fe2565b91507f646174613a6170706c69636174696f6e2f6a736f6e3b6261736536342c0000006000830152601d82019050919050565b60006138da603183613fd1565b91507f4552433732313a207472616e736665722063616c6c6572206973206e6f74206f60008301527f776e6572206e6f7220617070726f7665640000000000000000000000000000006020830152604082019050919050565b6000613940602c83613fd1565b91507f455243373231456e756d657261626c653a20676c6f62616c20696e646578206f60008301527f7574206f6620626f756e647300000000000000000000000000000000000000006020830152604082019050919050565b60006139a6600583613fe2565b91507f434f4c4f520000000000000000000000000000000000000000000000000000006000830152600582019050919050565b6139e28161416c565b82525050565b60006139f48284612f3d565b915081905092915050565b6000613a0b8285612f3d565b9150613a178284612f3d565b91508190509392505050565b6000613a2f8286612f3d565b9150613a3b8285612f3d565b9150613a478284612f3d565b9150819050949350505050565b6000613a608287612f6e565b9150613a6c8286612f3d565b9150613a788285612f6e565b9150613a848284612f3d565b9150613a8f82613377565b915081905095945050505050565b6000613aa882612fed565b9150613ab48284612f3d565b915081905092915050565b6000613aca8261315f565b9150613ad68284612f3d565b915081905092915050565b6000613aec826132d1565b9150613af88284612f3d565b915081905092915050565b6000613b0e826137a7565b9150613b1a8285612f3d565b9150613b258261319f565b9150613b318284612f3d565b9150613b3c8261358f565b91508190509392505050565b6000613b538261384d565b9150613b5f8284612f3d565b915081905092915050565b6000613b758261388d565b9150613b818284612f3d565b915081905092915050565b6000613b9782613999565b9150613ba38284612f3d565b915081905092915050565b6000602082019050613bc36000830184612ead565b92915050565b6000608082019050613bde6000830187612ead565b613beb6020830186612ead565b613bf860408301856139d9565b8181036060830152613c0a8184612ecb565b905095945050505050565b6000604082019050613c2a6000830185612ead565b613c3760208301846139d9565b9392505050565b6000602082019050613c536000830184612ebc565b92915050565b60006020820190508181036000830152613c738184612f04565b905092915050565b60006060820190508181036000830152613c958186612f04565b9050613ca460208301856139d9565b613cb16040830184612ead565b949350505050565b60006020820190508181036000830152613cd281613053565b9050919050565b60006020820190508181036000830152613cf2816130b9565b9050919050565b60006020820190508181036000830152613d128161311f565b9050919050565b60006020820190508181036000830152613d328161322b565b9050919050565b60006020820190508181036000830152613d5281613291565b9050919050565b60006020820190508181036000830152613d7281613311565b9050919050565b60006020820190508181036000830152613d92816133b7565b9050919050565b60006020820190508181036000830152613db28161341d565b9050919050565b60006020820190508181036000830152613dd281613483565b9050919050565b60006020820190508181036000830152613df2816134e9565b9050919050565b60006020820190508181036000830152613e128161354f565b9050919050565b60006020820190508181036000830152613e32816135cf565b9050919050565b60006020820190508181036000830152613e528161360f565b9050919050565b60006020820190508181036000830152613e7281613675565b9050919050565b60006020820190508181036000830152613e92816136db565b9050919050565b60006020820190508181036000830152613eb281613741565b9050919050565b60006020820190508181036000830152613ed2816137e7565b9050919050565b60006020820190508181036000830152613ef2816138cd565b9050919050565b60006020820190508181036000830152613f1281613933565b9050919050565b6000602082019050613f2e60008301846139d9565b92915050565b6000604051905081810181811067ffffffffffffffff82111715613f5b57613f5a6142f1565b5b8060405250919050565b600067ffffffffffffffff821115613f8057613f7f6142f1565b5b601f19601f8301169050602081019050919050565b60008190508160005260206000209050919050565b600081519050919050565b600081519050919050565b600082825260208201905092915050565b600082825260208201905092915050565b600081905092915050565b6000613ff88261416c565b91506140038361416c565b9250827fffffffffffffffffffffffffffffffffffffffffffffffffffffffffffffffff0382111561403857614037614264565b5b828201905092915050565b600061404e8261416c565b91506140598361416c565b92508261406957614068614293565b5b828204905092915050565b600061407f8261416c565b915061408a8361416c565b9250817fffffffffffffffffffffffffffffffffffffffffffffffffffffffffffffffff04831182151516156140c3576140c2614264565b5b828202905092915050565b60006140d98261416c565b91506140e48361416c565b9250828210156140f7576140f6614264565b5b828203905092915050565b600061410d8261414c565b9050919050565b60008115159050919050565b60007fffffffff0000000000000000000000000000000000000000000000000000000082169050919050565b600073ffffffffffffffffffffffffffffffffffffffff82169050919050565b6000819050919050565b82818337600083830152505050565b60005b838110156141a3578082015181840152602081019050614188565b838111156141b2576000848401525b50505050565b600060028204905060018216806141d057607f821691505b602082108114156141e4576141e36142c2565b5b50919050565b60006141f58261416c565b91507fffffffffffffffffffffffffffffffffffffffffffffffffffffffffffffffff82141561422857614227614264565b5b600182019050919050565b600061423e8261416c565b91506142498361416c565b92508261425957614258614293565b5b828206905092915050565b7f4e487b7100000000000000000000000000000000000000000000000000000000600052601160045260246000fd5b7f4e487b7100000000000000000000000000000000000000000000000000000000600052601260045260246000fd5b7f4e487b7100000000000000000000000000000000000000000000000000000000600052602260045260246000fd5b7f4e487b7100000000000000000000000000000000000000000000000000000000600052604160045260246000fd5b6000601f19601f8301169050919050565b61433a81614102565b811461434557600080fd5b50565b61435181614114565b811461435c57600080fd5b50565b61436881614120565b811461437357600080fd5b50565b61437f8161416c565b811461438a57600080fd5b5056fe416e204e465420772f20494420257320686173206265656e206d696e74656420746f2025734142434445464748494a4b4c4d4e4f505152535455565758595a6162636465666768696a6b6c6d6e6f707172737475767778797a303132333435363738392b2fa2646970667358221220e2abc93ced8251b7b1ac7e5072f9362b7f84e84dafc3f680edbd8081fa8aace864736f6c634300080000333c73766720786d6c6e733d27687474703a2f2f7777772e77332e6f72672f323030302f73766727207072657365727665417370656374526174696f3d27784d696e594d696e206d656574272076696577426f783d273020302033353020333530273e3c7374796c653e2e62617365207b2066696c6c3a2077686974653b20666f6e742d66616d696c793a2073657269663b20666f6e742d73697a653a20323470783b207d3c2f7374796c653e3c726563742077696474683d273130302527206865696768743d2731303025272066696c6c3d27272f3e3c7465787420783d273530252720793d273530252720636c6173733d27626173652720646f6d696e616e742d626173656c696e653d276d6964646c652720746578742d616e63686f723d276d6964646c65273e",
  "linkReferences": {},
  "deployedLinkReferences": {}
}