{
  "_format": "hh-sol-artifact-1",
  "contractName": "MyEpicNFT",
  "sourceName": "contracts/MyEpicNFT.sol",
  "abi": [
    {
      "inputs": [],
      "stateMutability": "nonpayable",
      "type": "constructor"
    },
    {
      "anonymous": false,
      "inputs": [
        {
          "indexed": true,
          "internalType": "address",
          "name": "owner",
          "type": "address"
        },
        {
          "indexed": true,
          "internalType": "address",
          "name": "approved",
          "type": "address"
        },
        {
          "indexed": true,
          "internalType": "uint256",
          "name": "tokenId",
          "type": "uint256"
        }
      ],
      "name": "Approval",
      "type": "event"
    },
    {
      "anonymous": false,
      "inputs": [
        {
          "indexed": true,
          "internalType": "address",
          "name": "owner",
          "type": "address"
        },
        {
          "indexed": true,
          "internalType": "address",
          "name": "operator",
          "type": "address"
        },
        {
          "indexed": false,
          "internalType": "bool",
          "name": "approved",
          "type": "bool"
        }
      ],
      "name": "ApprovalForAll",
      "type": "event"
    },
    {
      "anonymous": false,
      "inputs": [
        {
          "indexed": false,
          "internalType": "address",
          "name": "sender",
          "type": "address"
        },
        {
          "indexed": false,
          "internalType": "uint256",
          "name": "tokenId",
          "type": "uint256"
        }
      ],
      "name": "NewEpicNFTMinted",
      "type": "event"
    },
    {
      "anonymous": false,
      "inputs": [
        {
          "indexed": true,
          "internalType": "address",
          "name": "from",
          "type": "address"
        },
        {
          "indexed": true,
          "internalType": "address",
          "name": "to",
          "type": "address"
        },
        {
          "indexed": true,
          "internalType": "uint256",
          "name": "tokenId",
          "type": "uint256"
        }
      ],
      "name": "Transfer",
      "type": "event"
    },
    {
      "inputs": [
        {
          "internalType": "address",
          "name": "to",
          "type": "address"
        },
        {
          "internalType": "uint256",
          "name": "tokenId",
          "type": "uint256"
        }
      ],
      "name": "approve",
      "outputs": [],
      "stateMutability": "nonpayable",
      "type": "function"
    },
    {
      "inputs": [
        {
          "internalType": "address",
          "name": "owner",
          "type": "address"
        }
      ],
      "name": "balanceOf",
      "outputs": [
        {
          "internalType": "uint256",
          "name": "",
          "type": "uint256"
        }
      ],
      "stateMutability": "view",
      "type": "function"
    },
    {
      "inputs": [
        {
          "internalType": "uint256",
          "name": "tokenId",
          "type": "uint256"
        }
      ],
      "name": "getApproved",
      "outputs": [
        {
          "internalType": "address",
          "name": "",
          "type": "address"
        }
      ],
      "stateMutability": "view",
      "type": "function"
    },
    {
      "inputs": [],
      "name": "getTotalNFTsMintedSoFar",
      "outputs": [
        {
          "internalType": "uint256",
          "name": "",
          "type": "uint256"
        }
      ],
      "stateMutability": "view",
      "type": "function"
    },
    {
      "inputs": [
        {
          "internalType": "address",
          "name": "owner",
          "type": "address"
        },
        {
          "internalType": "address",
          "name": "operator",
          "type": "address"
        }
      ],
      "name": "isApprovedForAll",
      "outputs": [
        {
          "internalType": "bool",
          "name": "",
          "type": "bool"
        }
      ],
      "stateMutability": "view",
      "type": "function"
    },
    {
      "inputs": [],
      "name": "makeAnEpicNFT",
      "outputs": [],
      "stateMutability": "nonpayable",
      "type": "function"
    },
    {
      "inputs": [],
      "name": "maxSupply",
      "outputs": [
        {
          "internalType": "uint256",
          "name": "",
          "type": "uint256"
        }
      ],
      "stateMutability": "view",
      "type": "function"
    },
    {
      "inputs": [],
      "name": "name",
      "outputs": [
        {
          "internalType": "string",
          "name": "",
          "type": "string"
        }
      ],
      "stateMutability": "view",
      "type": "function"
    },
    {
      "inputs": [
        {
          "internalType": "uint256",
          "name": "tokenId",
          "type": "uint256"
        }
      ],
      "name": "ownerOf",
      "outputs": [
        {
          "internalType": "address",
          "name": "",
          "type": "address"
        }
      ],
      "stateMutability": "view",
      "type": "function"
    },
    {
      "inputs": [
        {
          "internalType": "uint256",
          "name": "tokenId",
          "type": "uint256"
        }
      ],
      "name": "pickRandomColor",
      "outputs": [
        {
          "internalType": "string",
          "name": "",
          "type": "string"
        }
      ],
      "stateMutability": "view",
      "type": "function"
    },
    {
      "inputs": [
        {
          "internalType": "uint256",
          "name": "tokenId",
          "type": "uint256"
        }
      ],
      "name": "pickRandomFirstWord",
      "outputs": [
        {
          "internalType": "string",
          "name": "",
          "type": "string"
        }
      ],
      "stateMutability": "view",
      "type": "function"
    },
    {
      "inputs": [
        {
          "internalType": "uint256",
          "name": "tokenId",
          "type": "uint256"
        }
      ],
      "name": "pickRandomSecondWord",
      "outputs": [
        {
          "internalType": "string",
          "name": "",
          "type": "string"
        }
      ],
      "stateMutability": "view",
      "type": "function"
    },
    {
      "inputs": [
        {
          "internalType": "uint256",
          "name": "tokenId",
          "type": "uint256"
        }
      ],
      "name": "pickRandomThirdWord",
      "outputs": [
        {
          "internalType": "string",
          "name": "",
          "type": "string"
        }
      ],
      "stateMutability": "view",
      "type": "function"
    },
    {
      "inputs": [
        {
          "internalType": "address",
          "name": "from",
          "type": "address"
        },
        {
          "internalType": "address",
          "name": "to",
          "type": "address"
        },
        {
          "internalType": "uint256",
          "name": "tokenId",
          "type": "uint256"
        }
      ],
      "name": "safeTransferFrom",
      "outputs": [],
      "stateMutability": "nonpayable",
      "type": "function"
    },
    {
      "inputs": [
        {
          "internalType": "address",
          "name": "from",
          "type": "address"
        },
        {
          "internalType": "address",
          "name": "to",
          "type": "address"
        },
        {
          "internalType": "uint256",
          "name": "tokenId",
          "type": "uint256"
        },
        {
          "internalType": "bytes",
          "name": "_data",
          "type": "bytes"
        }
      ],
      "name": "safeTransferFrom",
      "outputs": [],
      "stateMutability": "nonpayable",
      "type": "function"
    },
    {
      "inputs": [
        {
          "internalType": "address",
          "name": "operator",
          "type": "address"
        },
        {
          "internalType": "bool",
          "name": "approved",
          "type": "bool"
        }
      ],
      "name": "setApprovalForAll",
      "outputs": [],
      "stateMutability": "nonpayable",
      "type": "function"
    },
    {
      "inputs": [
        {
          "internalType": "bytes4",
          "name": "interfaceId",
          "type": "bytes4"
        }
      ],
      "name": "supportsInterface",
      "outputs": [
        {
          "internalType": "bool",
          "name": "",
          "type": "bool"
        }
      ],
      "stateMutability": "view",
      "type": "function"
    },
    {
      "inputs": [],
      "name": "symbol",
      "outputs": [
        {
          "internalType": "string",
          "name": "",
          "type": "string"
        }
      ],
      "stateMutability": "view",
      "type": "function"
    },
    {
      "inputs": [
        {
          "internalType": "uint256",
          "name": "index",
          "type": "uint256"
        }
      ],
      "name": "tokenByIndex",
      "outputs": [
        {
          "internalType": "uint256",
          "name": "",
          "type": "uint256"
        }
      ],
      "stateMutability": "view",
      "type": "function"
    },
    {
      "inputs": [
        {
          "internalType": "address",
          "name": "owner",
          "type": "address"
        },
        {
          "internalType": "uint256",
          "name": "index",
          "type": "uint256"
        }
      ],
      "name": "tokenOfOwnerByIndex",
      "outputs": [
        {
          "internalType": "uint256",
          "name": "",
          "type": "uint256"
        }
      ],
      "stateMutability": "view",
      "type": "function"
    },
    {
      "inputs": [
        {
          "internalType": "uint256",
          "name": "tokenId",
          "type": "uint256"
        }
      ],
      "name": "tokenURI",
      "outputs": [
        {
          "internalType": "string",
          "name": "",
          "type": "string"
        }
      ],
      "stateMutability": "view",
      "type": "function"
    },
    {
      "inputs": [],
      "name": "totalSupply",
      "outputs": [
        {
          "internalType": "uint256",
          "name": "",
          "type": "uint256"
        }
      ],
      "stateMutability": "view",
      "type": "function"
    },
    {
      "inputs": [
        {
          "internalType": "address",
          "name": "from",
          "type": "address"
        },
        {
          "internalType": "address",
          "name": "to",
          "type": "address"
        },
        {
          "internalType": "uint256",
          "name": "tokenId",
          "type": "uint256"
        }
      ],
      "name": "transferFrom",
      "outputs": [],
      "stateMutability": "nonpayable",
      "type": "function"
    }
  ],
  "bytecode": "0x60806040526003600c5560405180610100016040528060d381526020016200522960d39139600d90805190602001906200003b92919062000acd565b50604051806080016040528060568152602001620052fc60569139600e90805190602001906200006d92919062000acd565b506040518061016001604052806040518060400160405280600581526020017f4372617a7900000000000000000000000000000000000000000000000000000081525081526020016040518060400160405280600581526020017f467572727900000000000000000000000000000000000000000000000000000081525081526020016040518060400160405280600781526020017f426573706f6b650000000000000000000000000000000000000000000000000081525081526020016040518060400160405280600581526020017f486169727900000000000000000000000000000000000000000000000000000081525081526020016040518060400160405280600581526020017f5368696e7900000000000000000000000000000000000000000000000000000081525081526020016040518060400160405280600781526020017f476c6f77696e670000000000000000000000000000000000000000000000000081525081526020016040518060400160405280600681526020017f536d656c6c79000000000000000000000000000000000000000000000000000081525081526020016040518060400160405280600481526020017f54616c6c0000000000000000000000000000000000000000000000000000000081525081526020016040518060400160405280600581526020017f53686f727400000000000000000000000000000000000000000000000000000081525081526020016040518060400160405280600381526020017f466174000000000000000000000000000000000000000000000000000000000081525081526020016040518060400160405280600781526020017f466c616d696e6700000000000000000000000000000000000000000000000000815250815250600f90600b6200031392919062000b5e565b506040518061012001604052806040518060400160405280600881526020017f536c656570696e6700000000000000000000000000000000000000000000000081525081526020016040518060400160405280600781526020017f52756e6e696e670000000000000000000000000000000000000000000000000081525081526020016040518060400160405280600881526020017f4b6e65656c696e6700000000000000000000000000000000000000000000000081525081526020016040518060400160405280600781526020017f50726179696e670000000000000000000000000000000000000000000000000081525081526020016040518060400160405280600781526020017f44616e63696e670000000000000000000000000000000000000000000000000081525081526020016040518060400160405280600781526020017f4a756d70696e670000000000000000000000000000000000000000000000000081525081526020016040518060400160405280600881526020017f5377696d6d696e6700000000000000000000000000000000000000000000000081525081526020016040518060400160405280600b81526020017f5661636174696f6e696e6700000000000000000000000000000000000000000081525081526020016040518060400160405280600781526020017f53757266696e670000000000000000000000000000000000000000000000000081525081525060109060096200054392919062000bc5565b50604051806101c001604052806040518060400160405280600681526020017f57616c727573000000000000000000000000000000000000000000000000000081525081526020016040518060400160405280600881526020017f416e74656174657200000000000000000000000000000000000000000000000081525081526020016040518060400160405280600781526020017f50656e6775696e0000000000000000000000000000000000000000000000000081525081526020016040518060400160405280600381526020017f417065000000000000000000000000000000000000000000000000000000000081525081526020016040518060400160405280600681526020017f4d6f6e6b6579000000000000000000000000000000000000000000000000000081525081526020016040518060400160405280600381526020017f446f67000000000000000000000000000000000000000000000000000000000081525081526020016040518060400160405280600381526020017f436174000000000000000000000000000000000000000000000000000000000081525081526020016040518060400160405280600781526020017f48616d737465720000000000000000000000000000000000000000000000000081525081526020016040518060400160405280600681526020017f47657262696c000000000000000000000000000000000000000000000000000081525081526020016040518060400160405280600681526020017f4d75736b4f78000000000000000000000000000000000000000000000000000081525081526020016040518060400160405280600481526020017f4c696f6e0000000000000000000000000000000000000000000000000000000081525081526020016040518060400160405280600781526020017f45636869646e610000000000000000000000000000000000000000000000000081525081526020016040518060400160405280600681526020017f417965417965000000000000000000000000000000000000000000000000000081525081526020016040518060400160405280600c81526020017f4e616b65644d6f6c655261740000000000000000000000000000000000000000815250815250601190600e6200089a92919062000c2c565b506040518060c001604052806040518060400160405280600381526020017f726564000000000000000000000000000000000000000000000000000000000081525081526020016040518060400160405280600781526020017f233038433241380000000000000000000000000000000000000000000000000081525081526020016040518060400160405280600581526020017f626c61636b00000000000000000000000000000000000000000000000000000081525081526020016040518060400160405280600681526020017f79656c6c6f77000000000000000000000000000000000000000000000000000081525081526020016040518060400160405280600481526020017f626c75650000000000000000000000000000000000000000000000000000000081525081526020016040518060400160405280600581526020017f677265656e000000000000000000000000000000000000000000000000000000815250815250601290600662000a1892919062000c93565b5034801562000a2657600080fd5b506040518060400160405280601181526020017f536d617368656420576f7264732046756e0000000000000000000000000000008152506040518060400160405280600b81526020017f4372617a7920576f726473000000000000000000000000000000000000000000815250816000908051906020019062000aab92919062000acd565b50806001908051906020019062000ac492919062000acd565b50505062000dec565b82805462000adb9062000d87565b90600052602060002090601f01602090048101928262000aff576000855562000b4b565b82601f1062000b1a57805160ff191683800117855562000b4b565b8280016001018555821562000b4b579182015b8281111562000b4a57825182559160200191906001019062000b2d565b5b50905062000b5a919062000cfa565b5090565b82805482825590600052602060002090810192821562000bb2579160200282015b8281111562000bb157825182908051906020019062000ba092919062000acd565b509160200191906001019062000b7f565b5b50905062000bc1919062000d19565b5090565b82805482825590600052602060002090810192821562000c19579160200282015b8281111562000c1857825182908051906020019062000c0792919062000acd565b509160200191906001019062000be6565b5b50905062000c28919062000d19565b5090565b82805482825590600052602060002090810192821562000c80579160200282015b8281111562000c7f57825182908051906020019062000c6e92919062000acd565b509160200191906001019062000c4d565b5b50905062000c8f919062000d19565b5090565b82805482825590600052602060002090810192821562000ce7579160200282015b8281111562000ce657825182908051906020019062000cd592919062000acd565b509160200191906001019062000cb4565b5b50905062000cf6919062000d19565b5090565b5b8082111562000d1557600081600090555060010162000cfb565b5090565b5b8082111562000d3d576000818162000d33919062000d41565b5060010162000d1a565b5090565b50805462000d4f9062000d87565b6000825580601f1062000d63575062000d84565b601f01602090049060005260206000209081019062000d83919062000cfa565b5b50565b6000600282049050600182168062000da057607f821691505b6020821081141562000db75762000db662000dbd565b5b50919050565b7f4e487b7100000000000000000000000000000000000000000000000000000000600052602260045260246000fd5b61442d8062000dfc6000396000f3fe608060405234801561001057600080fd5b506004361061014d5760003560e01c8063514dc8c6116100c3578063b88d4fde1161007c578063b88d4fde146103ea578063c575757a14610406578063c87b56dd14610436578063d5abeb0114610466578063de9d132f14610484578063e985e9c51461048e5761014d565b8063514dc8c6146102f05780636352211e1461032057806370a082311461035057806395d89b4114610380578063a22cb4651461039e578063b187301f146103ba5761014d565b806318160ddd1161011557806318160ddd1461020a57806323b872dd146102285780632de38d68146102445780632f745c591461027457806342842e0e146102a45780634f6ccce7146102c05761014d565b806301ffc9a714610152578063060475901461018257806306fdde03146101a0578063081812fc146101be578063095ea7b3146101ee575b600080fd5b61016c60048036038101906101679190612e37565b6104be565b6040516101799190613c43565b60405180910390f35b61018a6104d0565b6040516101979190613f1e565b60405180910390f35b6101a86104e6565b6040516101b59190613c5e565b60405180910390f35b6101d860048036038101906101d39190612e89565b610578565b6040516101e59190613bb3565b60405180910390f35b61020860048036038101906102039190612dfb565b6105fd565b005b610212610715565b60405161021f9190613f1e565b60405180910390f35b610242600480360381019061023d9190612cf5565b610722565b005b61025e60048036038101906102599190612e89565b610782565b60405161026b9190613c5e565b60405180910390f35b61028e60048036038101906102899190612dfb565b6108a0565b60405161029b9190613f1e565b60405180910390f35b6102be60048036038101906102b99190612cf5565b610945565b005b6102da60048036038101906102d59190612e89565b610965565b6040516102e79190613f1e565b60405180910390f35b61030a60048036038101906103059190612e89565b6109fc565b6040516103179190613c5e565b60405180910390f35b61033a60048036038101906103359190612e89565b610b1a565b6040516103479190613bb3565b60405180910390f35b61036a60048036038101906103659190612c90565b610bcc565b6040516103779190613f1e565b60405180910390f35b610388610c84565b6040516103959190613c5e565b60405180910390f35b6103b860048036038101906103b39190612dbf565b610d16565b005b6103d460048036038101906103cf9190612e89565b610d2c565b6040516103e19190613c5e565b60405180910390f35b61040460048036038101906103ff9190612d44565b610e4a565b005b610420600480360381019061041b9190612e89565b610eac565b60405161042d9190613c5e565b60405180910390f35b610450600480360381019061044b9190612e89565b610fca565b60405161045d9190613c5e565b60405180910390f35b61046e610fdc565b60405161047b9190613f1e565b60405180910390f35b61048c610fe2565b005b6104a860048036038101906104a39190612cb9565b611259565b6040516104b59190613c43565b60405180910390f35b60006104c9826112ed565b9050919050565b6000806104dd600b611367565b90508091505090565b6060600080546104f5906141bd565b80601f0160208091040260200160405190810160405280929190818152602001828054610521906141bd565b801561056e5780601f106105435761010080835404028352916020019161056e565b820191906000526020600020905b81548152906001019060200180831161055157829003601f168201915b5050505050905090565b600061058382611375565b6105c2576040517f08c379a00000000000000000000000000000000000000000000000000000000081526004016105b990613e5e565b60405180910390fd5b6004600083815260200190815260200160002060009054906101000a900473ffffffffffffffffffffffffffffffffffffffff169050919050565b600061060882610b1a565b90508073ffffffffffffffffffffffffffffffffffffffff168373ffffffffffffffffffffffffffffffffffffffff161415610679576040517f08c379a000000000000000000000000000000000000000000000000000000000815260040161067090613ebe565b60405180910390fd5b8073ffffffffffffffffffffffffffffffffffffffff166106986113e1565b73ffffffffffffffffffffffffffffffffffffffff1614806106c757506106c6816106c16113e1565b611259565b5b610706576040517f08c379a00000000000000000000000000000000000000000000000000000000081526004016106fd90613d7e565b60405180910390fd5b61071083836113e9565b505050565b6000600980549050905090565b61073361072d6113e1565b826114a2565b610772576040517f08c379a000000000000000000000000000000000000000000000000000000000815260040161076990613ede565b60405180910390fd5b61077d838383611580565b505050565b606060006107b6610792846117dc565b6040516020016107a29190613b4d565b604051602081830303815290604052611989565b9050600f80549050816107c99190614238565b9050600f8181548110610805577f4e487b7100000000000000000000000000000000000000000000000000000000600052603260045260246000fd5b90600052602060002001805461081a906141bd565b80601f0160208091040260200160405190810160405280929190818152602001828054610846906141bd565b80156108935780601f1061086857610100808354040283529160200191610893565b820191906000526020600020905b81548152906001019060200180831161087657829003601f168201915b5050505050915050919050565b60006108ab83610bcc565b82106108ec576040517f08c379a00000000000000000000000000000000000000000000000000000000081526004016108e390613cbe565b60405180910390fd5b600760008473ffffffffffffffffffffffffffffffffffffffff1673ffffffffffffffffffffffffffffffffffffffff168152602001908152602001600020600083815260200190815260200160002054905092915050565b61096083838360405180602001604052806000815250610e4a565b505050565b600061096f610715565b82106109b0576040517f08c379a00000000000000000000000000000000000000000000000000000000081526004016109a790613efe565b60405180910390fd5b600982815481106109ea577f4e487b7100000000000000000000000000000000000000000000000000000000600052603260045260246000fd5b90600052602060002001549050919050565b60606000610a30610a0c846117dc565b604051602001610a1c9190613b91565b604051602081830303815290604052611989565b905060128054905081610a439190614238565b905060128181548110610a7f577f4e487b7100000000000000000000000000000000000000000000000000000000600052603260045260246000fd5b906000526020600020018054610a94906141bd565b80601f0160208091040260200160405190810160405280929190818152602001828054610ac0906141bd565b8015610b0d5780601f10610ae257610100808354040283529160200191610b0d565b820191906000526020600020905b815481529060010190602001808311610af057829003601f168201915b5050505050915050919050565b6000806002600084815260200190815260200160002060009054906101000a900473ffffffffffffffffffffffffffffffffffffffff169050600073ffffffffffffffffffffffffffffffffffffffff168173ffffffffffffffffffffffffffffffffffffffff161415610bc3576040517f08c379a0000000000000000000000000000000000000000000000000000000008152600401610bba90613dbe565b60405180910390fd5b80915050919050565b60008073ffffffffffffffffffffffffffffffffffffffff168273ffffffffffffffffffffffffffffffffffffffff161415610c3d576040517f08c379a0000000000000000000000000000000000000000000000000000000008152600401610c3490613d9e565b60405180910390fd5b600360008373ffffffffffffffffffffffffffffffffffffffff1673ffffffffffffffffffffffffffffffffffffffff168152602001908152602001600020549050919050565b606060018054610c93906141bd565b80601f0160208091040260200160405190810160405280929190818152602001828054610cbf906141bd565b8015610d0c5780601f10610ce157610100808354040283529160200191610d0c565b820191906000526020600020905b815481529060010190602001808311610cef57829003601f168201915b5050505050905090565b610d28610d216113e1565b83836119bc565b5050565b60606000610d60610d3c846117dc565b604051602001610d4c9190613ae6565b604051602081830303815290604052611989565b905060108054905081610d739190614238565b905060108181548110610daf577f4e487b7100000000000000000000000000000000000000000000000000000000600052603260045260246000fd5b906000526020600020018054610dc4906141bd565b80601f0160208091040260200160405190810160405280929190818152602001828054610df0906141bd565b8015610e3d5780601f10610e1257610100808354040283529160200191610e3d565b820191906000526020600020905b815481529060010190602001808311610e2057829003601f168201915b5050505050915050919050565b610e5b610e556113e1565b836114a2565b610e9a576040517f08c379a0000000000000000000000000000000000000000000000000000000008152600401610e9190613ede565b60405180910390fd5b610ea684848484611b29565b50505050565b60606000610ee0610ebc846117dc565b604051602001610ecc9190613ac4565b604051602081830303815290604052611989565b905060118054905081610ef39190614238565b905060118181548110610f2f577f4e487b7100000000000000000000000000000000000000000000000000000000600052603260045260246000fd5b906000526020600020018054610f44906141bd565b80601f0160208091040260200160405190810160405280929190818152602001828054610f70906141bd565b8015610fbd5780601f10610f9257610100808354040283529160200191610fbd565b820191906000526020600020905b815481529060010190602001808311610fa057829003601f168201915b5050505050915050919050565b6060610fd582611b85565b9050919050565b600c5481565b6000610fee600b611367565b90506000610ffa610715565b9050600c5460018261100c9190613ff2565b111561104d576040517f08c379a000000000000000000000000000000000000000000000000000000000815260040161104490613dfe565b60405180910390fd5b600061105883610782565b9050600061106584610d2c565b9050600061107285610eac565b9050600083838360405160200161108b93929190613a28565b604051602081830303815290604052905060006110a7876109fc565b90506000600d82600e856040516020016110c49493929190613a59565b60405160208183030381529060405290506000611109846110e484611cd7565b6040516020016110f5929190613b08565b604051602081830303815290604052611cd7565b905060008160405160200161111e9190613b6f565b604051602081830303815290604052905061116d6040518060400160405280601581526020017f0a2d2d2d2d2d2d2d2d2d2d2d2d2d2d2d2d2d2d2d2d0000000000000000000000815250611e95565b611195816040516020016111819190613aa2565b604051602081830303815290604052611e95565b6111d36040518060400160405280601581526020017f2d2d2d2d2d2d2d2d2d2d2d2d2d2d2d2d2d2d2d2d0a0000000000000000000000815250611e95565b6111dd338b611f2e565b6111e78a82611f4c565b6111f1600b611fc0565b611214604051806060016040528060258152602001614393602591398b33611fd6565b7febb98688741ffa4c7589bf325de30cf7becb63de567842e1ccdb6cb949fdc82c338b604051611245929190613c1a565b60405180910390a150505050505050505050565b6000600560008473ffffffffffffffffffffffffffffffffffffffff1673ffffffffffffffffffffffffffffffffffffffff16815260200190815260200160002060008373ffffffffffffffffffffffffffffffffffffffff1673ffffffffffffffffffffffffffffffffffffffff16815260200190815260200160002060009054906101000a900460ff16905092915050565b60007f780e9d63000000000000000000000000000000000000000000000000000000007bffffffffffffffffffffffffffffffffffffffffffffffffffffffff1916827bffffffffffffffffffffffffffffffffffffffffffffffffffffffff19161480611360575061135f82612075565b5b9050919050565b600081600001549050919050565b60008073ffffffffffffffffffffffffffffffffffffffff166002600084815260200190815260200160002060009054906101000a900473ffffffffffffffffffffffffffffffffffffffff1673ffffffffffffffffffffffffffffffffffffffff1614159050919050565b600033905090565b816004600083815260200190815260200160002060006101000a81548173ffffffffffffffffffffffffffffffffffffffff021916908373ffffffffffffffffffffffffffffffffffffffff160217905550808273ffffffffffffffffffffffffffffffffffffffff1661145c83610b1a565b73ffffffffffffffffffffffffffffffffffffffff167f8c5be1e5ebec7d5bd14f71427d1e84f3dd0314c0f7b2291e5b200ac8c7c3b92560405160405180910390a45050565b60006114ad82611375565b6114ec576040517f08c379a00000000000000000000000000000000000000000000000000000000081526004016114e390613d5e565b60405180910390fd5b60006114f783610b1a565b90508073ffffffffffffffffffffffffffffffffffffffff168473ffffffffffffffffffffffffffffffffffffffff16148061156657508373ffffffffffffffffffffffffffffffffffffffff1661154e84610578565b73ffffffffffffffffffffffffffffffffffffffff16145b8061157757506115768185611259565b5b91505092915050565b8273ffffffffffffffffffffffffffffffffffffffff166115a082610b1a565b73ffffffffffffffffffffffffffffffffffffffff16146115f6576040517f08c379a00000000000000000000000000000000000000000000000000000000081526004016115ed90613e7e565b60405180910390fd5b600073ffffffffffffffffffffffffffffffffffffffff168273ffffffffffffffffffffffffffffffffffffffff161415611666576040517f08c379a000000000000000000000000000000000000000000000000000000000815260040161165d90613d1e565b60405180910390fd5b611671838383612157565b61167c6000826113e9565b6001600360008573ffffffffffffffffffffffffffffffffffffffff1673ffffffffffffffffffffffffffffffffffffffff16815260200190815260200160002060008282546116cc91906140d3565b925050819055506001600360008473ffffffffffffffffffffffffffffffffffffffff1673ffffffffffffffffffffffffffffffffffffffff16815260200190815260200160002060008282546117239190613ff2565b92505081905550816002600083815260200190815260200160002060006101000a81548173ffffffffffffffffffffffffffffffffffffffff021916908373ffffffffffffffffffffffffffffffffffffffff160217905550808273ffffffffffffffffffffffffffffffffffffffff168473ffffffffffffffffffffffffffffffffffffffff167fddf252ad1be2c89b69c2b068fc378daa952ba7f163c4a11628f55a4df523b3ef60405160405180910390a4505050565b60606000821415611824576040518060400160405280600181526020017f30000000000000000000000000000000000000000000000000000000000000008152509050611984565b600082905060005b6000821461185657808061183f906141ef565b915050600a8261184f9190614048565b915061182c565b60008167ffffffffffffffff811115611898577f4e487b7100000000000000000000000000000000000000000000000000000000600052604160045260246000fd5b6040519080825280601f01601f1916602001820160405280156118ca5781602001600182028036833780820191505090505b5090505b6000851461197d576001826118e391906140d3565b9150600a856118f29190614238565b60306118fe9190613ff2565b60f81b81838151811061193a577f4e487b7100000000000000000000000000000000000000000000000000000000600052603260045260246000fd5b60200101907effffffffffffffffffffffffffffffffffffffffffffffffffffffffffffff1916908160001a905350600a856119769190614048565b94506118ce565b8093505050505b919050565b60008160405160200161199c91906139ed565b6040516020818303038152906040528051906020012060001c9050919050565b8173ffffffffffffffffffffffffffffffffffffffff168373ffffffffffffffffffffffffffffffffffffffff161415611a2b576040517f08c379a0000000000000000000000000000000000000000000000000000000008152600401611a2290613d3e565b60405180910390fd5b80600560008573ffffffffffffffffffffffffffffffffffffffff1673ffffffffffffffffffffffffffffffffffffffff16815260200190815260200160002060008473ffffffffffffffffffffffffffffffffffffffff1673ffffffffffffffffffffffffffffffffffffffff16815260200190815260200160002060006101000a81548160ff0219169083151502179055508173ffffffffffffffffffffffffffffffffffffffff168373ffffffffffffffffffffffffffffffffffffffff167f17307eab39ab6107e8899845ad3d59bd9653f200f220920489ca2b5937696c3183604051611b1c9190613c43565b60405180910390a3505050565b611b34848484611580565b611b4084848484612167565b611b7f576040517f08c379a0000000000000000000000000000000000000000000000000000000008152600401611b7690613cde565b60405180910390fd5b50505050565b6060611b9082611375565b611bcf576040517f08c379a0000000000000000000000000000000000000000000000000000000008152600401611bc690613e3e565b60405180910390fd5b6000600660008481526020019081526020016000208054611bef906141bd565b80601f0160208091040260200160405190810160405280929190818152602001828054611c1b906141bd565b8015611c685780601f10611c3d57610100808354040283529160200191611c68565b820191906000526020600020905b815481529060010190602001808311611c4b57829003601f168201915b505050505090506000611c796122fe565b9050600081511415611c8f578192505050611cd2565b600082511115611cc4578082604051602001611cac929190613a04565b60405160208183030381529060405292505050611cd2565b611ccd84612315565b925050505b919050565b60606000825190506000811415611d005760405180602001604052806000815250915050611e90565b60006003600283611d119190613ff2565b611d1b9190614048565b6004611d279190614079565b90506000602082611d389190613ff2565b67ffffffffffffffff811115611d77577f4e487b7100000000000000000000000000000000000000000000000000000000600052604160045260246000fd5b6040519080825280601f01601f191660200182016040528015611da95781602001600182028036833780820191505090505b50905060006040518060600160405280604081526020016143b8604091399050600181016020830160005b86811015611e4d5760038101905062ffffff818a015116603f8160121c168401518060081b905060ff603f83600c1c1686015116810190508060081b905060ff603f8360061c1686015116810190508060081b905060ff603f831686015116810190508060e01b90508084526004840193505050611dd4565b506003860660018114611e675760028114611e7757611e82565b613d3d60f01b6002830352611e82565b603d60f81b60018303525b508484525050819450505050505b919050565b611f2b81604051602401611ea99190613c5e565b6040516020818303038152906040527f41304fac000000000000000000000000000000000000000000000000000000007bffffffffffffffffffffffffffffffffffffffffffffffffffffffff19166020820180517bffffffffffffffffffffffffffffffffffffffffffffffffffffffff83818316178352505050506123bc565b50565b611f488282604051806020016040528060008152506123e5565b5050565b611f5582611375565b611f94576040517f08c379a0000000000000000000000000000000000000000000000000000000008152600401611f8b90613dde565b60405180910390fd5b80600660008481526020019081526020016000209080519060200190611fbb929190612b1c565b505050565b6001816000016000828254019250508190555050565b612070838383604051602401611fee93929190613c80565b6040516020818303038152906040527fe3849f79000000000000000000000000000000000000000000000000000000007bffffffffffffffffffffffffffffffffffffffffffffffffffffffff19166020820180517bffffffffffffffffffffffffffffffffffffffffffffffffffffffff83818316178352505050506123bc565b505050565b60007f80ac58cd000000000000000000000000000000000000000000000000000000007bffffffffffffffffffffffffffffffffffffffffffffffffffffffff1916827bffffffffffffffffffffffffffffffffffffffffffffffffffffffff1916148061214057507f5b5e139f000000000000000000000000000000000000000000000000000000007bffffffffffffffffffffffffffffffffffffffffffffffffffffffff1916827bffffffffffffffffffffffffffffffffffffffffffffffffffffffff1916145b80612150575061214f82612440565b5b9050919050565b6121628383836124aa565b505050565b60006121888473ffffffffffffffffffffffffffffffffffffffff166125be565b156122f1578373ffffffffffffffffffffffffffffffffffffffff1663150b7a026121b16113e1565b8786866040518563ffffffff1660e01b81526004016121d39493929190613bce565b602060405180830381600087803b1580156121ed57600080fd5b505af192505050801561221e57506040513d601f19601f8201168201806040525081019061221b9190612e60565b60015b6122a1573d806000811461224e576040519150601f19603f3d011682016040523d82523d6000602084013e612253565b606091505b50600081511415612299576040517f08c379a000000000000000000000000000000000000000000000000000000000815260040161229090613cde565b60405180910390fd5b805181602001fd5b63150b7a0260e01b7bffffffffffffffffffffffffffffffffffffffffffffffffffffffff1916817bffffffffffffffffffffffffffffffffffffffffffffffffffffffff1916149150506122f6565b600190505b949350505050565b606060405180602001604052806000815250905090565b606061232082611375565b61235f576040517f08c379a000000000000000000000000000000000000000000000000000000000815260040161235690613e9e565b60405180910390fd5b60006123696122fe565b9050600081511161238957604051806020016040528060008152506123b4565b80612393846117dc565b6040516020016123a4929190613a04565b6040516020818303038152906040525b915050919050565b60008151905060006a636f6e736f6c652e6c6f679050602083016000808483855afa5050505050565b6123ef83836125d1565b6123fc6000848484612167565b61243b576040517f08c379a000000000000000000000000000000000000000000000000000000000815260040161243290613cde565b60405180910390fd5b505050565b60007f01ffc9a7000000000000000000000000000000000000000000000000000000007bffffffffffffffffffffffffffffffffffffffffffffffffffffffff1916827bffffffffffffffffffffffffffffffffffffffffffffffffffffffff1916149050919050565b6124b583838361279f565b600073ffffffffffffffffffffffffffffffffffffffff168373ffffffffffffffffffffffffffffffffffffffff1614156124f8576124f3816127a4565b612537565b8173ffffffffffffffffffffffffffffffffffffffff168373ffffffffffffffffffffffffffffffffffffffff16146125365761253583826127ed565b5b5b600073ffffffffffffffffffffffffffffffffffffffff168273ffffffffffffffffffffffffffffffffffffffff16141561257a576125758161295a565b6125b9565b8273ffffffffffffffffffffffffffffffffffffffff168273ffffffffffffffffffffffffffffffffffffffff16146125b8576125b78282612a9d565b5b5b505050565b600080823b905060008111915050919050565b600073ffffffffffffffffffffffffffffffffffffffff168273ffffffffffffffffffffffffffffffffffffffff161415612641576040517f08c379a000000000000000000000000000000000000000000000000000000000815260040161263890613e1e565b60405180910390fd5b61264a81611375565b1561268a576040517f08c379a000000000000000000000000000000000000000000000000000000000815260040161268190613cfe565b60405180910390fd5b61269660008383612157565b6001600360008473ffffffffffffffffffffffffffffffffffffffff1673ffffffffffffffffffffffffffffffffffffffff16815260200190815260200160002060008282546126e69190613ff2565b92505081905550816002600083815260200190815260200160002060006101000a81548173ffffffffffffffffffffffffffffffffffffffff021916908373ffffffffffffffffffffffffffffffffffffffff160217905550808273ffffffffffffffffffffffffffffffffffffffff16600073ffffffffffffffffffffffffffffffffffffffff167fddf252ad1be2c89b69c2b068fc378daa952ba7f163c4a11628f55a4df523b3ef60405160405180910390a45050565b505050565b600980549050600a600083815260200190815260200160002081905550600981908060018154018082558091505060019003906000526020600020016000909190919091505550565b600060016127fa84610bcc565b61280491906140d3565b90506000600860008481526020019081526020016000205490508181146128e9576000600760008673ffffffffffffffffffffffffffffffffffffffff1673ffffffffffffffffffffffffffffffffffffffff168152602001908152602001600020600084815260200190815260200160002054905080600760008773ffffffffffffffffffffffffffffffffffffffff1673ffffffffffffffffffffffffffffffffffffffff168152602001908152602001600020600084815260200190815260200160002081905550816008600083815260200190815260200160002081905550505b6008600084815260200190815260200160002060009055600760008573ffffffffffffffffffffffffffffffffffffffff1673ffffffffffffffffffffffffffffffffffffffff16815260200190815260200160002060008381526020019081526020016000206000905550505050565b6000600160098054905061296e91906140d3565b90506000600a60008481526020019081526020016000205490506000600983815481106129c4577f4e487b7100000000000000000000000000000000000000000000000000000000600052603260045260246000fd5b906000526020600020015490508060098381548110612a0c577f4e487b7100000000000000000000000000000000000000000000000000000000600052603260045260246000fd5b906000526020600020018190555081600a600083815260200190815260200160002081905550600a6000858152602001908152602001600020600090556009805480612a81577f4e487b7100000000000000000000000000000000000000000000000000000000600052603160045260246000fd5b6001900381819060005260206000200160009055905550505050565b6000612aa883610bcc565b905081600760008573ffffffffffffffffffffffffffffffffffffffff1673ffffffffffffffffffffffffffffffffffffffff168152602001908152602001600020600083815260200190815260200160002081905550806008600084815260200190815260200160002081905550505050565b828054612b28906141bd565b90600052602060002090601f016020900481019282612b4a5760008555612b91565b82601f10612b6357805160ff1916838001178555612b91565b82800160010185558215612b91579182015b82811115612b90578251825591602001919060010190612b75565b5b509050612b9e9190612ba2565b5090565b5b80821115612bbb576000816000905550600101612ba3565b5090565b6000612bd2612bcd84613f6a565b613f39565b905082815260208101848484011115612bea57600080fd5b612bf584828561417b565b509392505050565b600081359050612c0c81614336565b92915050565b600081359050612c218161434d565b92915050565b600081359050612c3681614364565b92915050565b600081519050612c4b81614364565b92915050565b600082601f830112612c6257600080fd5b8135612c72848260208601612bbf565b91505092915050565b600081359050612c8a8161437b565b92915050565b600060208284031215612ca257600080fd5b6000612cb084828501612bfd565b91505092915050565b60008060408385031215612ccc57600080fd5b6000612cda85828601612bfd565b9250506020612ceb85828601612bfd565b9150509250929050565b600080600060608486031215612d0a57600080fd5b6000612d1886828701612bfd565b9350506020612d2986828701612bfd565b9250506040612d3a86828701612c7b565b9150509250925092565b60008060008060808587031215612d5a57600080fd5b6000612d6887828801612bfd565b9450506020612d7987828801612bfd565b9350506040612d8a87828801612c7b565b925050606085013567ffffffffffffffff811115612da757600080fd5b612db387828801612c51565b91505092959194509250565b60008060408385031215612dd257600080fd5b6000612de085828601612bfd565b9250506020612df185828601612c12565b9150509250929050565b60008060408385031215612e0e57600080fd5b6000612e1c85828601612bfd565b9250506020612e2d85828601612c7b565b9150509250929050565b600060208284031215612e4957600080fd5b6000612e5784828501612c27565b91505092915050565b600060208284031215612e7257600080fd5b6000612e8084828501612c3c565b91505092915050565b600060208284031215612e9b57600080fd5b6000612ea984828501612c7b565b91505092915050565b612ebb81614107565b82525050565b612eca81614119565b82525050565b6000612edb82613faf565b612ee58185613fc5565b9350612ef581856020860161418a565b612efe81614325565b840191505092915050565b6000612f1482613fba565b612f1e8185613fd6565b9350612f2e81856020860161418a565b612f3781614325565b840191505092915050565b6000612f4d82613fba565b612f578185613fe7565b9350612f6781856020860161418a565b80840191505092915050565b60008154612f80816141bd565b612f8a8186613fe7565b94506001821660008114612fa55760018114612fb657612fe9565b60ff19831686528186019350612fe9565b612fbf85613f9a565b60005b83811015612fe157815481890152600182019150602081019050612fc2565b838801955050505b50505092915050565b6000612fff602583613fe7565b91507f68747470733a2f2f6e6674707265766965772e30786465762e636f6465732f3f60008301527f636f64653d0000000000000000000000000000000000000000000000000000006020830152602582019050919050565b6000613065602b83613fd6565b91507f455243373231456e756d657261626c653a206f776e657220696e646578206f7560008301527f74206f6620626f756e64730000000000000000000000000000000000000000006020830152604082019050919050565b60006130cb603283613fd6565b91507f4552433732313a207472616e7366657220746f206e6f6e20455243373231526560008301527f63656976657220696d706c656d656e74657200000000000000000000000000006020830152604082019050919050565b6000613131601c83613fd6565b91507f4552433732313a20746f6b656e20616c7265616479206d696e746564000000006000830152602082019050919050565b6000613171600a83613fe7565b91507f54484952445f574f5244000000000000000000000000000000000000000000006000830152600a82019050919050565b60006131b1605f83613fe7565b91507f222c226465736372697074696f6e223a20224120686967686c79206163636c6160008301527f696d656420636f6c6c656374696f6e206f66206b6970732e222c2022696d616760208301527f65223a2022646174613a696d6167652f7376672b786d6c3b6261736536342c006040830152605f82019050919050565b600061323d602483613fd6565b91507f4552433732313a207472616e7366657220746f20746865207a65726f2061646460008301527f72657373000000000000000000000000000000000000000000000000000000006020830152604082019050919050565b60006132a3601983613fd6565b91507f4552433732313a20617070726f766520746f2063616c6c6572000000000000006000830152602082019050919050565b60006132e3600b83613fe7565b91507f5345434f4e445f574f52440000000000000000000000000000000000000000006000830152600b82019050919050565b6000613323602c83613fd6565b91507f4552433732313a206f70657261746f7220717565727920666f72206e6f6e657860008301527f697374656e7420746f6b656e00000000000000000000000000000000000000006020830152604082019050919050565b6000613389600d83613fe7565b91507f3c2f746578743e3c2f7376673e000000000000000000000000000000000000006000830152600d82019050919050565b60006133c9603883613fd6565b91507f4552433732313a20617070726f76652063616c6c6572206973206e6f74206f7760008301527f6e6572206e6f7220617070726f76656420666f7220616c6c00000000000000006020830152604082019050919050565b600061342f602a83613fd6565b91507f4552433732313a2062616c616e636520717565727920666f7220746865207a6560008301527f726f2061646472657373000000000000000000000000000000000000000000006020830152604082019050919050565b6000613495602983613fd6565b91507f4552433732313a206f776e657220717565727920666f72206e6f6e657869737460008301527f656e7420746f6b656e00000000000000000000000000000000000000000000006020830152604082019050919050565b60006134fb602e83613fd6565b91507f45524337323155524953746f726167653a2055524920736574206f66206e6f6e60008301527f6578697374656e7420746f6b656e0000000000000000000000000000000000006020830152604082019050919050565b6000613561601683613fd6565b91507f6d6178204e4654206c696d6974206578636565646564000000000000000000006000830152602082019050919050565b60006135a1600283613fe7565b91507f227d0000000000000000000000000000000000000000000000000000000000006000830152600282019050919050565b60006135e1602083613fd6565b91507f4552433732313a206d696e7420746f20746865207a65726f20616464726573736000830152602082019050919050565b6000613621603183613fd6565b91507f45524337323155524953746f726167653a2055524920717565727920666f722060008301527f6e6f6e6578697374656e7420746f6b656e0000000000000000000000000000006020830152604082019050919050565b6000613687602c83613fd6565b91507f4552433732313a20617070726f76656420717565727920666f72206e6f6e657860008301527f697374656e7420746f6b656e00000000000000000000000000000000000000006020830152604082019050919050565b60006136ed602983613fd6565b91507f4552433732313a207472616e73666572206f6620746f6b656e2074686174206960008301527f73206e6f74206f776e00000000000000000000000000000000000000000000006020830152604082019050919050565b6000613753602f83613fd6565b91507f4552433732314d657461646174613a2055524920717565727920666f72206e6f60008301527f6e6578697374656e7420746f6b656e00000000000000000000000000000000006020830152604082019050919050565b60006137b9600a83613fe7565b91507f7b226e616d65223a2022000000000000000000000000000000000000000000006000830152600a82019050919050565b60006137f9602183613fd6565b91507f4552433732313a20617070726f76616c20746f2063757272656e74206f776e6560008301527f72000000000000000000000000000000000000000000000000000000000000006020830152604082019050919050565b600061385f600a83613fe7565b91507f46495253545f574f5244000000000000000000000000000000000000000000006000830152600a82019050919050565b600061389f601d83613fe7565b91507f646174613a6170706c69636174696f6e2f6a736f6e3b6261736536342c0000006000830152601d82019050919050565b60006138df603183613fd6565b91507f4552433732313a207472616e736665722063616c6c6572206973206e6f74206f60008301527f776e6572206e6f7220617070726f7665640000000000000000000000000000006020830152604082019050919050565b6000613945602c83613fd6565b91507f455243373231456e756d657261626c653a20676c6f62616c20696e646578206f60008301527f7574206f6620626f756e647300000000000000000000000000000000000000006020830152604082019050919050565b60006139ab600583613fe7565b91507f434f4c4f520000000000000000000000000000000000000000000000000000006000830152600582019050919050565b6139e781614171565b82525050565b60006139f98284612f42565b915081905092915050565b6000613a108285612f42565b9150613a1c8284612f42565b91508190509392505050565b6000613a348286612f42565b9150613a408285612f42565b9150613a4c8284612f42565b9150819050949350505050565b6000613a658287612f73565b9150613a718286612f42565b9150613a7d8285612f73565b9150613a898284612f42565b9150613a948261337c565b915081905095945050505050565b6000613aad82612ff2565b9150613ab98284612f42565b915081905092915050565b6000613acf82613164565b9150613adb8284612f42565b915081905092915050565b6000613af1826132d6565b9150613afd8284612f42565b915081905092915050565b6000613b13826137ac565b9150613b1f8285612f42565b9150613b2a826131a4565b9150613b368284612f42565b9150613b4182613594565b91508190509392505050565b6000613b5882613852565b9150613b648284612f42565b915081905092915050565b6000613b7a82613892565b9150613b868284612f42565b915081905092915050565b6000613b9c8261399e565b9150613ba88284612f42565b915081905092915050565b6000602082019050613bc86000830184612eb2565b92915050565b6000608082019050613be36000830187612eb2565b613bf06020830186612eb2565b613bfd60408301856139de565b8181036060830152613c0f8184612ed0565b905095945050505050565b6000604082019050613c2f6000830185612eb2565b613c3c60208301846139de565b9392505050565b6000602082019050613c586000830184612ec1565b92915050565b60006020820190508181036000830152613c788184612f09565b905092915050565b60006060820190508181036000830152613c9a8186612f09565b9050613ca960208301856139de565b613cb66040830184612eb2565b949350505050565b60006020820190508181036000830152613cd781613058565b9050919050565b60006020820190508181036000830152613cf7816130be565b9050919050565b60006020820190508181036000830152613d1781613124565b9050919050565b60006020820190508181036000830152613d3781613230565b9050919050565b60006020820190508181036000830152613d5781613296565b9050919050565b60006020820190508181036000830152613d7781613316565b9050919050565b60006020820190508181036000830152613d97816133bc565b9050919050565b60006020820190508181036000830152613db781613422565b9050919050565b60006020820190508181036000830152613dd781613488565b9050919050565b60006020820190508181036000830152613df7816134ee565b9050919050565b60006020820190508181036000830152613e1781613554565b9050919050565b60006020820190508181036000830152613e37816135d4565b9050919050565b60006020820190508181036000830152613e5781613614565b9050919050565b60006020820190508181036000830152613e778161367a565b9050919050565b60006020820190508181036000830152613e97816136e0565b9050919050565b60006020820190508181036000830152613eb781613746565b9050919050565b60006020820190508181036000830152613ed7816137ec565b9050919050565b60006020820190508181036000830152613ef7816138d2565b9050919050565b60006020820190508181036000830152613f1781613938565b9050919050565b6000602082019050613f3360008301846139de565b92915050565b6000604051905081810181811067ffffffffffffffff82111715613f6057613f5f6142f6565b5b8060405250919050565b600067ffffffffffffffff821115613f8557613f846142f6565b5b601f19601f8301169050602081019050919050565b60008190508160005260206000209050919050565b600081519050919050565b600081519050919050565b600082825260208201905092915050565b600082825260208201905092915050565b600081905092915050565b6000613ffd82614171565b915061400883614171565b9250827fffffffffffffffffffffffffffffffffffffffffffffffffffffffffffffffff0382111561403d5761403c614269565b5b828201905092915050565b600061405382614171565b915061405e83614171565b92508261406e5761406d614298565b5b828204905092915050565b600061408482614171565b915061408f83614171565b9250817fffffffffffffffffffffffffffffffffffffffffffffffffffffffffffffffff04831182151516156140c8576140c7614269565b5b828202905092915050565b60006140de82614171565b91506140e983614171565b9250828210156140fc576140fb614269565b5b828203905092915050565b600061411282614151565b9050919050565b60008115159050919050565b60007fffffffff0000000000000000000000000000000000000000000000000000000082169050919050565b600073ffffffffffffffffffffffffffffffffffffffff82169050919050565b6000819050919050565b82818337600083830152505050565b60005b838110156141a857808201518184015260208101905061418d565b838111156141b7576000848401525b50505050565b600060028204905060018216806141d557607f821691505b602082108114156141e9576141e86142c7565b5b50919050565b60006141fa82614171565b91507fffffffffffffffffffffffffffffffffffffffffffffffffffffffffffffffff82141561422d5761422c614269565b5b600182019050919050565b600061424382614171565b915061424e83614171565b92508261425e5761425d614298565b5b828206905092915050565b7f4e487b7100000000000000000000000000000000000000000000000000000000600052601160045260246000fd5b7f4e487b7100000000000000000000000000000000000000000000000000000000600052601260045260246000fd5b7f4e487b7100000000000000000000000000000000000000000000000000000000600052602260045260246000fd5b7f4e487b7100000000000000000000000000000000000000000000000000000000600052604160045260246000fd5b6000601f19601f8301169050919050565b61433f81614107565b811461434a57600080fd5b50565b61435681614119565b811461436157600080fd5b50565b61436d81614125565b811461437857600080fd5b50565b61438481614171565b811461438f57600080fd5b5056fe416e204e465420772f20494420257320686173206265656e206d696e74656420746f2025734142434445464748494a4b4c4d4e4f505152535455565758595a6162636465666768696a6b6c6d6e6f707172737475767778797a303132333435363738392b2fa2646970667358221220ead7b7b0d3b53817b20d6800fa40783b3eb394d558ba81593b26a0d8aefe790564736f6c634300080000333c73766720786d6c6e733d27687474703a2f2f7777772e77332e6f72672f323030302f73766727207072657365727665417370656374526174696f3d27784d696e594d696e206d656574272076696577426f783d273020302033353020333530273e3c7374796c653e2e62617365207b2066696c6c3a2077686974653b20666f6e742d66616d696c793a2073657269663b20666f6e742d73697a653a20323470783b207d3c2f7374796c653e3c726563742077696474683d273130302527206865696768743d2731303025272066696c6c3d27272f3e3c7465787420783d273530252720793d273530252720636c6173733d27626173652720646f6d696e616e742d626173656c696e653d276d6964646c652720746578742d616e63686f723d276d6964646c65273e",
  "linkReferences": {},
  "deployedLinkReferences": {}
}